{
  "transactions": [
    {
      "hash": "0x3ab90ea6f9e4f68c7bbbc80409ac44d515ae4a47ada937cbe5f6fe2d48ac389f",
      "transactionType": "CREATE",
      "contractName": "MockChainLink",
      "contractAddress": "0x409b1919ea62dafcdc619b29b7dfddab9235e1f8",
      "function": null,
      "arguments": null,
      "transaction": {
        "from": "0xac5092a5c7302693a8e39643339109d21dbad723",
        "gas": "0x271c4",
        "value": "0x0",
        "input": "0x60806040526305f5c5a85f553480156015575f80fd5b5060dc806100225f395ff3fe6080604052348015600e575f80fd5b5060043610603a575f3560e01c8063313ce56714603e578063f7a30806146052578063feaf968c146063575b5f80fd5b604051600881526020015b60405180910390f35b6061605d3660046090565b5f55565b005b5f8054604080518381526020810192909252810182905260608101829052608081019190915260a0016049565b5f60208284031215609f575f80fd5b503591905056fea264697066735822122037c776c4758d6e77f5c814918d626cf5a45f5b58d5e2b443f2169c5e1589ca4a64736f6c634300081a0033",
        "nonce": "0x25",
        "chainId": "0x1e0"
      },
      "additionalContracts": [],
      "isFixedGasLimit": false
    },
    {
      "hash": "0x441c113698bedc51750171107771e6c6904f657bc302e1f136fcab157bbe1dff",
      "transactionType": "CALL",
      "contractName": null,
      "contractAddress": "0x8b40fc36f78d24d0949bdbb4a4b3f0d45b75d040",
      "function": "setOracle(bytes32,address,uint256)",
      "arguments": [
        "0xa037f09ef5dda00aeff42cdbae7d8251fa4529ba97ed425854fd5c9e9705862f",
        "0x409B1919Ea62DafcDC619B29b7dfDdAB9235e1F8",
        "5000"
      ],
      "transaction": {
        "from": "0xac5092a5c7302693a8e39643339109d21dbad723",
        "to": "0x8b40fc36f78d24d0949bdbb4a4b3f0d45b75d040",
        "gas": "0x174a9",
        "value": "0x0",
        "input": "0x864db7a8a037f09ef5dda00aeff42cdbae7d8251fa4529ba97ed425854fd5c9e9705862f000000000000000000000000409b1919ea62dafcdc619b29b7dfddab9235e1f80000000000000000000000000000000000000000000000000000000000001388",
        "nonce": "0x26",
        "chainId": "0x1e0"
      },
      "additionalContracts": [],
      "isFixedGasLimit": false
    }
  ],
  "receipts": [
    {
      "status": "0x1",
      "cumulativeGasUsed": "0x59ea87",
      "logs": [],
      "logsBloom": "0x00000000000000000000000000000000000000000000000000000000000000000000000000000000000000000000000000000000000000000000000000000000000000000000000000000000000000000000000000000000000000000000000000000000000000000000000000000000000000000000000000000000000000000000000000000000000000000000000000000000000000000000000000000000000000000000000000000000000000000000000000000000000000000000000000000000000000000000000000000000000000000000000000000000000000000000000000000000000000000000000000000000000000000000000000000000",
      "type": "0x2",
      "transactionHash": "0x3ab90ea6f9e4f68c7bbbc80409ac44d515ae4a47ada937cbe5f6fe2d48ac389f",
      "transactionIndex": "0xf",
      "blockHash": "0xb82600a133d2db373ff862bdea3a1239b0b474e11b240341519cece6f15de711",
      "blockNumber": "0xf74884",
      "gasUsed": "0x1e15c",
      "effectiveGasPrice": "0x18ce6",
      "from": "0xac5092a5c7302693a8e39643339109d21dbad723",
      "to": null,
      "contractAddress": "0x409b1919ea62dafcdc619b29b7dfddab9235e1f8",
      "l1BaseFeeScalar": "0x21f9",
      "l1BlobBaseFee": "0x1",
      "l1BlobBaseFeeScalar": "0xdd3ef",
      "l1Fee": "0x24b8fa327",
      "l1GasPrice": "0x11e4e0db",
      "l1GasUsed": "0xebf"
    },
    {
      "status": "0x1",
      "cumulativeGasUsed": "0x5af855",
      "logs": [],
      "logsBloom": "0x00000000000000000000000000000000000000000000000000000000000000000000000000000000000000000000000000000000000000000000000000000000000000000000000000000000000000000000000000000000000000000000000000000000000000000000000000000000000000000000000000000000000000000000000000000000000000000000000000000000000000000000000000000000000000000000000000000000000000000000000000000000000000000000000000000000000000000000000000000000000000000000000000000000000000000000000000000000000000000000000000000000000000000000000000000000",
      "type": "0x2",
      "transactionHash": "0x441c113698bedc51750171107771e6c6904f657bc302e1f136fcab157bbe1dff",
      "transactionIndex": "0x10",
      "blockHash": "0xb82600a133d2db373ff862bdea3a1239b0b474e11b240341519cece6f15de711",
      "blockNumber": "0xf74884",
      "gasUsed": "0x10dce",
      "effectiveGasPrice": "0x18ce6",
      "from": "0xac5092a5c7302693a8e39643339109d21dbad723",
      "to": "0x8b40fc36f78d24d0949bdbb4a4b3f0d45b75d040",
      "contractAddress": null,
      "l1BaseFeeScalar": "0x21f9",
      "l1BlobBaseFee": "0x1",
      "l1BlobBaseFeeScalar": "0xdd3ef",
      "l1Fee": "0x11960b4c5",
      "l1GasPrice": "0x11e4e0db",
      "l1GasUsed": "0x710"
    }
  ],
  "libraries": [],
  "pending": [],
  "returns": {},
  "timestamp": 1751747585,
  "chain": 480,
  "commit": "cf95ec0"
}