{
  "transactions": [
    {
      "hash": "0x2a99c025e84055c445351b7baa4d06a4619e072d5b7e6fa358f45502090dbe5a",
      "transactionType": "CREATE",
      "contractName": "MockChainLink",
      "contractAddress": "0x31b50a53a7f3669b1a3db7681fd2eeefc972b8ca",
      "function": null,
      "arguments": null,
      "transaction": {
        "from": "0xac5092a5c7302693a8e39643339109d21dbad723",
        "gas": "0x271c4",
        "value": "0x0",
        "input": "0x60806040526305f5c5a85f553480156015575f80fd5b5060dc806100225f395ff3fe6080604052348015600e575f80fd5b5060043610603a575f3560e01c8063313ce56714603e578063f7a30806146052578063feaf968c146063575b5f80fd5b604051600881526020015b60405180910390f35b6061605d3660046090565b5f55565b005b5f8054604080518381526020810192909252810182905260608101829052608081019190915260a0016049565b5f60208284031215609f575f80fd5b503591905056fea264697066735822122037c776c4758d6e77f5c814918d626cf5a45f5b58d5e2b443f2169c5e1589ca4a64736f6c634300081a0033",
        "nonce": "0x19",
        "chainId": "0x1e0"
      },
      "additionalContracts": [],
      "isFixedGasLimit": false
    },
    {
      "hash": "0x0f4743f4d9b2495c4a8a2a7a343ce3504d7ac9bf08154104f7780befafdac452",
      "transactionType": "CALL",
      "contractName": null,
      "contractAddress": "0x235877899ecd2287b073d312c02d21e7f8d09040",
      "function": "setOracle(bytes32,address,uint256)",
      "arguments": [
        "0x7629b6dd8348b724674a6d139d316f5ffe86cc18c98b8aa3e1c52d53472e220b",
        "0x31B50a53a7f3669B1A3db7681Fd2EEefC972b8cA",
        "5000"
      ],
      "transaction": {
        "from": "0xac5092a5c7302693a8e39643339109d21dbad723",
        "to": "0x235877899ecd2287b073d312c02d21e7f8d09040",
        "gas": "0x174c9",
        "value": "0x0",
        "input": "0x864db7a87629b6dd8348b724674a6d139d316f5ffe86cc18c98b8aa3e1c52d53472e220b00000000000000000000000031b50a53a7f3669b1a3db7681fd2eeefc972b8ca0000000000000000000000000000000000000000000000000000000000001388",
        "nonce": "0x1a",
        "chainId": "0x1e0"
      },
      "additionalContracts": [],
      "isFixedGasLimit": false
    }
  ],
  "receipts": [
    {
      "status": "0x1",
      "cumulativeGasUsed": "0xab5ff3",
      "logs": [],
      "logsBloom": "0x00000000000000000000000000000000000000000000000000000000000000000000000000000000000000000000000000000000000000000000000000000000000000000000000000000000000000000000000000000000000000000000000000000000000000000000000000000000000000000000000000000000000000000000000000000000000000000000000000000000000000000000000000000000000000000000000000000000000000000000000000000000000000000000000000000000000000000000000000000000000000000000000000000000000000000000000000000000000000000000000000000000000000000000000000000000",
      "type": "0x2",
      "transactionHash": "0x2a99c025e84055c445351b7baa4d06a4619e072d5b7e6fa358f45502090dbe5a",
      "transactionIndex": "0x10",
      "blockHash": "0x1a0f75b37af3797c64f18de57fa0148fd86afeaf82d39d2605664939622a7821",
      "blockNumber": "0xf6cd1b",
      "gasUsed": "0x1e15c",
      "effectiveGasPrice": "0x193bb",
      "from": "0xac5092a5c7302693a8e39643339109d21dbad723",
      "to": null,
      "contractAddress": "0x31b50a53a7f3669b1a3db7681fd2eeefc972b8ca",
      "l1BaseFeeScalar": "0x21f9",
      "l1BlobBaseFee": "0x1",
      "l1BlobBaseFeeScalar": "0xdd3ef",
      "l1Fee": "0x1ff3223b7",
      "l1GasPrice": "0xf918094",
      "l1GasUsed": "0xebf"
    },
    {
      "status": "0x1",
      "cumulativeGasUsed": "0xac6dd7",
      "logs": [],
      "logsBloom": "0x00000000000000000000000000000000000000000000000000000000000000000000000000000000000000000000000000000000000000000000000000000000000000000000000000000000000000000000000000000000000000000000000000000000000000000000000000000000000000000000000000000000000000000000000000000000000000000000000000000000000000000000000000000000000000000000000000000000000000000000000000000000000000000000000000000000000000000000000000000000000000000000000000000000000000000000000000000000000000000000000000000000000000000000000000000000",
      "type": "0x2",
      "transactionHash": "0x0f4743f4d9b2495c4a8a2a7a343ce3504d7ac9bf08154104f7780befafdac452",
      "transactionIndex": "0x11",
      "blockHash": "0x1a0f75b37af3797c64f18de57fa0148fd86afeaf82d39d2605664939622a7821",
      "blockNumber": "0xf6cd1b",
      "gasUsed": "0x10de4",
      "effectiveGasPrice": "0x193bb",
      "from": "0xac5092a5c7302693a8e39643339109d21dbad723",
      "to": "0x235877899ecd2287b073d312c02d21e7f8d09040",
      "contractAddress": null,
      "l1BaseFeeScalar": "0x21f9",
      "l1BlobBaseFee": "0x1",
      "l1BlobBaseFeeScalar": "0xdd3ef",
      "l1Fee": "0xf4cea049",
      "l1GasPrice": "0xf918094",
      "l1GasUsed": "0x710"
    }
  ],
  "libraries": [],
  "pending": [],
  "returns": {},
  "timestamp": 1751684389,
  "chain": 480,
  "commit": "d3377bb"
}