{
  "transactions": [
    {
      "hash": "0x827d0ac3801e8ef9dc021b1e0dbfdddb595e760384cd332a35a3183ab49cd1ac",
      "transactionType": "CALL",
      "contractName": null,
      "contractAddress": "0x303026e9b70c93d37cbd9513aa5808cbee6ccf5f",
      "function": "approve(address,uint256)",
      "arguments": [
        "0x000000000022D473030F116dDEE9F6B43aC78BA3",
        "115792089237316195423570985008687907853269984665640564039457584007913129639935"
      ],
      "transaction": {
        "from": "0xac5092a5c7302693a8e39643339109d21dbad723",
        "to": "0x303026e9b70c93d37cbd9513aa5808cbee6ccf5f",
        "gas": "0x9048",
        "value": "0x0",
        "input": "0x095ea7b3000000000000000000000000000000000022d473030f116ddee9f6b43ac78ba3ffffffffffffffffffffffffffffffffffffffffffffffffffffffffffffffff",
        "nonce": "0x41",
        "chainId": "0x1e0"
      },
      "additionalContracts": [],
      "isFixedGasLimit": false
    },
    {
      "hash": "0x9fe99f47562ab744135fd9aecee4898a54c470d7e8dcced4f07a068d54ae0291",
      "transactionType": "CALL",
      "contractName": null,
      "contractAddress": "0x000000000022d473030f116ddee9f6b43ac78ba3",
      "function": "approve(address,address,uint160,uint48)",
      "arguments": [
        "0x303026e9B70C93D37Cbd9513Aa5808CBeE6Ccf5f",
        "0xC585E0f504613b5fBf874F21Af14c65260fB41fA",
        "1461501637330902918203684832716283019655932542975",
        "281474976710655"
      ],
      "transaction": {
        "from": "0xac5092a5c7302693a8e39643339109d21dbad723",
        "to": "0x000000000022d473030f116ddee9f6b43ac78ba3",
        "gas": "0x96a0",
        "value": "0x0",
        "input": "0x87517c45000000000000000000000000303026e9b70c93d37cbd9513aa5808cbee6ccf5f000000000000000000000000c585e0f504613b5fbf874f21af14c65260fb41fa000000000000000000000000ffffffffffffffffffffffffffffffffffffffff0000000000000000000000000000000000000000000000000000ffffffffffff",
        "nonce": "0x42",
        "chainId": "0x1e0"
      },
      "additionalContracts": [],
      "isFixedGasLimit": false
    },
    {
      "hash": "0x96532eddfeafd34feca8bbb61bbcd241524badba621b60eaa5babd5d476eedbd",
      "transactionType": "CALL",
      "contractName": null,
      "contractAddress": "0x38d40946801877b665bc942f4f2c582f81d8c600",
      "function": "approve(address,uint256)",
      "arguments": [
        "0x000000000022D473030F116dDEE9F6B43aC78BA3",
        "115792089237316195423570985008687907853269984665640564039457584007913129639935"
      ],
      "transaction": {
        "from": "0xac5092a5c7302693a8e39643339109d21dbad723",
        "to": "0x38d40946801877b665bc942f4f2c582f81d8c600",
        "gas": "0x9048",
        "value": "0x0",
        "input": "0x095ea7b3000000000000000000000000000000000022d473030f116ddee9f6b43ac78ba3ffffffffffffffffffffffffffffffffffffffffffffffffffffffffffffffff",
        "nonce": "0x43",
        "chainId": "0x1e0"
      },
      "additionalContracts": [],
      "isFixedGasLimit": false
    },
    {
      "hash": "0x5b0149ebe6c94fcca67af8761b247b5626de7e07bf8194db98bd88ffe2079dec",
      "transactionType": "CALL",
      "contractName": null,
      "contractAddress": "0x000000000022d473030f116ddee9f6b43ac78ba3",
      "function": "approve(address,address,uint160,uint48)",
      "arguments": [
        "0x38D40946801877b665bc942F4f2C582F81D8C600",
        "0xC585E0f504613b5fBf874F21Af14c65260fB41fA",
        "1461501637330902918203684832716283019655932542975",
        "281474976710655"
      ],
      "transaction": {
        "from": "0xac5092a5c7302693a8e39643339109d21dbad723",
        "to": "0x000000000022d473030f116ddee9f6b43ac78ba3",
        "gas": "0x9f6c",
        "value": "0x0",
        "input": "0x87517c4500000000000000000000000038d40946801877b665bc942f4f2c582f81d8c600000000000000000000000000c585e0f504613b5fbf874f21af14c65260fb41fa000000000000000000000000ffffffffffffffffffffffffffffffffffffffff0000000000000000000000000000000000000000000000000000ffffffffffff",
        "nonce": "0x44",
        "chainId": "0x1e0"
      },
      "additionalContracts": [],
      "isFixedGasLimit": false
    },
    {
      "hash": "0x2a7807be79d6a35c3b6203a2828bea445e4dfd304d4534787c8681013ae65ccd",
      "transactionType": "CALL",
      "contractName": null,
      "contractAddress": "0xc585e0f504613b5fbf874f21af14c65260fb41fa",
      "function": "multicall(bytes[])",
      "arguments": [
        "[0xf7020405000000000000000000000000303026e9b70c93d37cbd9513aa5808cbee6ccf5f00000000000000000000000038d40946801877b665bc942f4f2c582f81d8c60000000000000000000000000000000000000000000000000000000000000013880000000000000000000000000000000000000000000000000000000000000064000000000000000000000000b6409396564740a856c3b404d498e4ddedc15040000000000000000000000000000000000000000100000000000000000000000000000000000000000000000000000000000000000000000000000000000000e00000000000000000000000000000000000000000000000000000000000000000, 0xdd46508f0000000000000000000000000000000000000000000000000000000000000040000000000000000000000000000000000000000000000000000000006869f3b70000000000000000000000000000000000000000000000000000000000000400000000000000000000000000000000000000000000000000000000000000004000000000000000000000000000000000000000000000000000000000000000800000000000000000000000000000000000000000000000000000000000000004020d14140000000000000000000000000000000000000000000000000000000000000000000000000000000000000000000000000000000000000000000000040000000000000000000000000000000000000000000000000000000000000080000000000000000000000000000000000000000000000000000000000000024000000000000000000000000000000000000000000000000000000000000002a0000000000000000000000000000000000000000000000000000000000000030000000000000000000000000000000000000000000000000000000000000001a0000000000000000000000000303026e9b70c93d37cbd9513aa5808cbee6ccf5f00000000000000000000000038d40946801877b665bc942f4f2c582f81d8c60000000000000000000000000000000000000000000000000000000000000013880000000000000000000000000000000000000000000000000000000000000064000000000000000000000000b6409396564740a856c3b404d498e4ddedc15040fffffffffffffffffffffffffffffffffffffffffffffffffffffffffffedb0800000000000000000000000000000000000000000000000000000000000124f8000000000000000000000000000000000000000000000002c69ab5c5a569cf5b000000000000000000000000000000000000000000000002b5e3af16b1880001000000000000000000000000000000000000000000000002b5e3af16b1880001000000000000000000000000ac5092a5c7302693a8e39643339109d21dbad723000000000000000000000000000000000000000000000000000000000000018000000000000000000000000000000000000000000000000000000000000000000000000000000000000000000000000000000000000000000000000000000040000000000000000000000000303026e9b70c93d37cbd9513aa5808cbee6ccf5f00000000000000000000000038d40946801877b665bc942f4f2c582f81d8c6000000000000000000000000000000000000000000000000000000000000000040000000000000000000000000303026e9b70c93d37cbd9513aa5808cbee6ccf5f000000000000000000000000ac5092a5c7302693a8e39643339109d21dbad723000000000000000000000000000000000000000000000000000000000000004000000000000000000000000038d40946801877b665bc942f4f2c582f81d8c600000000000000000000000000ac5092a5c7302693a8e39643339109d21dbad723]"
      ],
      "transaction": {
        "from": "0xac5092a5c7302693a8e39643339109d21dbad723",
        "to": "0xc585e0f504613b5fbf874f21af14c65260fb41fa",
        "gas": "0x99c6c",
        "value": "0x0",
        "input": "0xac9650d800000000000000000000000000000000000000000000000000000000000000200000000000000000000000000000000000000000000000000000000000000002000000000000000000000000000000000000000000000000000000000000004000000000000000000000000000000000000000000000000000000000000001800000000000000000000000000000000000000000000000000000000000000104f7020405000000000000000000000000303026e9b70c93d37cbd9513aa5808cbee6ccf5f00000000000000000000000038d40946801877b665bc942f4f2c582f81d8c60000000000000000000000000000000000000000000000000000000000000013880000000000000000000000000000000000000000000000000000000000000064000000000000000000000000b6409396564740a856c3b404d498e4ddedc15040000000000000000000000000000000000000000100000000000000000000000000000000000000000000000000000000000000000000000000000000000000e00000000000000000000000000000000000000000000000000000000000000000000000000000000000000000000000000000000000000000000000000000000000000000000000000000000000000000000000000000000000000464dd46508f0000000000000000000000000000000000000000000000000000000000000040000000000000000000000000000000000000000000000000000000006869f3b70000000000000000000000000000000000000000000000000000000000000400000000000000000000000000000000000000000000000000000000000000004000000000000000000000000000000000000000000000000000000000000000800000000000000000000000000000000000000000000000000000000000000004020d14140000000000000000000000000000000000000000000000000000000000000000000000000000000000000000000000000000000000000000000000040000000000000000000000000000000000000000000000000000000000000080000000000000000000000000000000000000000000000000000000000000024000000000000000000000000000000000000000000000000000000000000002a0000000000000000000000000000000000000000000000000000000000000030000000000000000000000000000000000000000000000000000000000000001a0000000000000000000000000303026e9b70c93d37cbd9513aa5808cbee6ccf5f00000000000000000000000038d40946801877b665bc942f4f2c582f81d8c60000000000000000000000000000000000000000000000000000000000000013880000000000000000000000000000000000000000000000000000000000000064000000000000000000000000b6409396564740a856c3b404d498e4ddedc15040fffffffffffffffffffffffffffffffffffffffffffffffffffffffffffedb0800000000000000000000000000000000000000000000000000000000000124f8000000000000000000000000000000000000000000000002c69ab5c5a569cf5b000000000000000000000000000000000000000000000002b5e3af16b1880001000000000000000000000000000000000000000000000002b5e3af16b1880001000000000000000000000000ac5092a5c7302693a8e39643339109d21dbad723000000000000000000000000000000000000000000000000000000000000018000000000000000000000000000000000000000000000000000000000000000000000000000000000000000000000000000000000000000000000000000000040000000000000000000000000303026e9b70c93d37cbd9513aa5808cbee6ccf5f00000000000000000000000038d40946801877b665bc942f4f2c582f81d8c6000000000000000000000000000000000000000000000000000000000000000040000000000000000000000000303026e9b70c93d37cbd9513aa5808cbee6ccf5f000000000000000000000000ac5092a5c7302693a8e39643339109d21dbad723000000000000000000000000000000000000000000000000000000000000004000000000000000000000000038d40946801877b665bc942f4f2c582f81d8c600000000000000000000000000ac5092a5c7302693a8e39643339109d21dbad72300000000000000000000000000000000000000000000000000000000",
        "nonce": "0x45",
        "chainId": "0x1e0"
      },
      "additionalContracts": [],
      "isFixedGasLimit": false
    }
  ],
  "receipts": [
    {
      "status": "0x1",
      "cumulativeGasUsed": "0xaa025d",
      "logs": [
        {
          "address": "0x303026e9b70c93d37cbd9513aa5808cbee6ccf5f",
          "topics": [
            "0x8c5be1e5ebec7d5bd14f71427d1e84f3dd0314c0f7b2291e5b200ac8c7c3b925",
            "0x000000000000000000000000ac5092a5c7302693a8e39643339109d21dbad723",
            "0x000000000000000000000000000000000022d473030f116ddee9f6b43ac78ba3"
          ],
          "data": "0xffffffffffffffffffffffffffffffffffffffffffffffffffffffffffffffff",
          "blockHash": "0x61f8e3cf482823209d77fd581fc862d5d44d591ac7478e75ab1ef88158a268e4",
          "blockNumber": "0xf7756c",
          "transactionHash": "0x827d0ac3801e8ef9dc021b1e0dbfdddb595e760384cd332a35a3183ab49cd1ac",
          "transactionIndex": "0x16",
          "logIndex": "0x7e",
          "removed": false
        }
      ],
      "logsBloom": "0x00000000000000000000000000000000000000000000000000000000000000000000100000000000000000000000000000000000800000000000000000200000000000000000000000004000000000000000000000000800000000000000000000000000000000000000000000000000000000200000000000000000000000000000000000000000000000000000000000000000400000000000000000000000020000000000000020000000000000000000002000020000000000000000000000000000000000000000000000000000000000000000000000000000000000000010000000000000000000000000000000000000000000000000000000000000",
      "type": "0x2",
      "transactionHash": "0x827d0ac3801e8ef9dc021b1e0dbfdddb595e760384cd332a35a3183ab49cd1ac",
      "transactionIndex": "0x16",
      "blockHash": "0x61f8e3cf482823209d77fd581fc862d5d44d591ac7478e75ab1ef88158a268e4",
      "blockNumber": "0xf7756c",
      "gasUsed": "0x6876",
      "effectiveGasPrice": "0x18df3",
      "from": "0xac5092a5c7302693a8e39643339109d21dbad723",
      "to": "0x303026e9b70c93d37cbd9513aa5808cbee6ccf5f",
      "contractAddress": null,
      "l1BaseFeeScalar": "0x21f9",
      "l1BlobBaseFee": "0x1",
      "l1BlobBaseFeeScalar": "0xdd3ef",
      "l1Fee": "0xda75e4e0",
      "l1GasPrice": "0xfb30cf3",
      "l1GasUsed": "0x640"
    },
    {
      "status": "0x1",
      "cumulativeGasUsed": "0xaa6f6b",
      "logs": [
        {
          "address": "0x000000000022d473030f116ddee9f6b43ac78ba3",
          "topics": [
            "0xda9fa7c1b00402c17d0161b249b1ab8bbec047c5a52207b9c112deffd817036b",
            "0x000000000000000000000000ac5092a5c7302693a8e39643339109d21dbad723",
            "0x000000000000000000000000303026e9b70c93d37cbd9513aa5808cbee6ccf5f",
            "0x000000000000000000000000c585e0f504613b5fbf874f21af14c65260fb41fa"
          ],
          "data": "0x000000000000000000000000ffffffffffffffffffffffffffffffffffffffff0000000000000000000000000000000000000000000000000000ffffffffffff",
          "blockHash": "0x61f8e3cf482823209d77fd581fc862d5d44d591ac7478e75ab1ef88158a268e4",
          "blockNumber": "0xf7756c",
          "transactionHash": "0x9fe99f47562ab744135fd9aecee4898a54c470d7e8dcced4f07a068d54ae0291",
          "transactionIndex": "0x17",
          "logIndex": "0x7f",
          "removed": false
        }
      ],
      "logsBloom": "0x00010000000000040000000000000000000000000000000000000000080000000000000000000000000000000000000000000000000000000000010000080000000000000000000000000000000000000000000000000000000000000000000000000000000000000000000000000000000000200000000000000000000000000020000000000000000000000000000000000000000000000000000000000000000000000000000020000000000000000000000010020000000000080000000000000000000000000000000000000000000000000000000040000000000000000000000000000000000000000000000400000000000000000000000001000400",
      "type": "0x2",
      "transactionHash": "0x9fe99f47562ab744135fd9aecee4898a54c470d7e8dcced4f07a068d54ae0291",
      "transactionIndex": "0x17",
      "blockHash": "0x61f8e3cf482823209d77fd581fc862d5d44d591ac7478e75ab1ef88158a268e4",
      "blockNumber": "0xf7756c",
      "gasUsed": "0x6d0e",
      "effectiveGasPrice": "0x18df3",
      "from": "0xac5092a5c7302693a8e39643339109d21dbad723",
      "to": "0x000000000022d473030f116ddee9f6b43ac78ba3",
      "contractAddress": null,
      "l1BaseFeeScalar": "0x21f9",
      "l1BlobBaseFee": "0x1",
      "l1BlobBaseFeeScalar": "0xdd3ef",
      "l1Fee": "0xf162b392",
      "l1GasPrice": "0xfb30cf3",
      "l1GasUsed": "0x6e7"
    },
    {
      "status": "0x1",
      "cumulativeGasUsed": "0xaad7e1",
      "logs": [
        {
          "address": "0x38d40946801877b665bc942f4f2c582f81d8c600",
          "topics": [
            "0x8c5be1e5ebec7d5bd14f71427d1e84f3dd0314c0f7b2291e5b200ac8c7c3b925",
            "0x000000000000000000000000ac5092a5c7302693a8e39643339109d21dbad723",
            "0x000000000000000000000000000000000022d473030f116ddee9f6b43ac78ba3"
          ],
          "data": "0xffffffffffffffffffffffffffffffffffffffffffffffffffffffffffffffff",
          "blockHash": "0x61f8e3cf482823209d77fd581fc862d5d44d591ac7478e75ab1ef88158a268e4",
          "blockNumber": "0xf7756c",
          "transactionHash": "0x96532eddfeafd34feca8bbb61bbcd241524badba621b60eaa5babd5d476eedbd",
          "transactionIndex": "0x18",
          "logIndex": "0x80",
          "removed": false
        }
      ],
      "logsBloom": "0x00000000000000000000000000000000800000000000000000000000000000000000000000000000000000000000000000000000800000000000000000200000000000000000000000004000000000000000000000000800000000000000000000000000000000000000000000000000000000200000000000000000000000000000000000000000000000000000000000000000000000000000000000000000020000000000000020000000000000000000000000020000000000000000000000000000000000000000000000000000000000000000000000000000000000000010000000000000000000000000000000000000200000000001000000000000",
      "type": "0x2",
      "transactionHash": "0x96532eddfeafd34feca8bbb61bbcd241524badba621b60eaa5babd5d476eedbd",
      "transactionIndex": "0x18",
      "blockHash": "0x61f8e3cf482823209d77fd581fc862d5d44d591ac7478e75ab1ef88158a268e4",
      "blockNumber": "0xf7756c",
      "gasUsed": "0x6876",
      "effectiveGasPrice": "0x18df3",
      "from": "0xac5092a5c7302693a8e39643339109d21dbad723",
      "to": "0x38d40946801877b665bc942f4f2c582f81d8c600",
      "contractAddress": null,
      "l1BaseFeeScalar": "0x21f9",
      "l1BlobBaseFee": "0x1",
      "l1BlobBaseFeeScalar": "0xdd3ef",
      "l1Fee": "0xda75e4e0",
      "l1GasPrice": "0xfb30cf3",
      "l1GasUsed": "0x640"
    },
    {
      "status": "0x1",
      "cumulativeGasUsed": "0xab44e3",
      "logs": [
        {
          "address": "0x000000000022d473030f116ddee9f6b43ac78ba3",
          "topics": [
            "0xda9fa7c1b00402c17d0161b249b1ab8bbec047c5a52207b9c112deffd817036b",
            "0x000000000000000000000000ac5092a5c7302693a8e39643339109d21dbad723",
            "0x00000000000000000000000038d40946801877b665bc942f4f2c582f81d8c600",
            "0x000000000000000000000000c585e0f504613b5fbf874f21af14c65260fb41fa"
          ],
          "data": "0x000000000000000000000000ffffffffffffffffffffffffffffffffffffffff0000000000000000000000000000000000000000000000000000ffffffffffff",
          "blockHash": "0x61f8e3cf482823209d77fd581fc862d5d44d591ac7478e75ab1ef88158a268e4",
          "blockNumber": "0xf7756c",
          "transactionHash": "0x5b0149ebe6c94fcca67af8761b247b5626de7e07bf8194db98bd88ffe2079dec",
          "transactionIndex": "0x19",
          "logIndex": "0x81",
          "removed": false
        }
      ],
      "logsBloom": "0x00010000000000000000000000000000000000000000000000000000000000000000000000000000000000000000000000000000000000000000010000080000000000000000000000000000000000000000000000000000000000000000000000000000000000000000000000000000000000200000000000000000000000000020000000000000000000000000000000000000000000000000001000000000000000000000000020000000000000000000000010020000000000080000000000000000000000000000000000000000000000000000000040000000000000000000000000000000000000000002000400000000000000000000000000000480",
      "type": "0x2",
      "transactionHash": "0x5b0149ebe6c94fcca67af8761b247b5626de7e07bf8194db98bd88ffe2079dec",
      "transactionIndex": "0x19",
      "blockHash": "0x61f8e3cf482823209d77fd581fc862d5d44d591ac7478e75ab1ef88158a268e4",
      "blockNumber": "0xf7756c",
      "gasUsed": "0x6d02",
      "effectiveGasPrice": "0x18df3",
      "from": "0xac5092a5c7302693a8e39643339109d21dbad723",
      "to": "0x000000000022d473030f116ddee9f6b43ac78ba3",
      "contractAddress": null,
      "l1BaseFeeScalar": "0x21f9",
      "l1BlobBaseFee": "0x1",
      "l1BlobBaseFeeScalar": "0xdd3ef",
      "l1Fee": "0xef8ee19f",
      "l1GasPrice": "0xfb30cf3",
      "l1GasUsed": "0x6da"
    },
    {
      "status": "0x1",
      "cumulativeGasUsed": "0xb23a31",
      "logs": [
        {
          "address": "0xb1860d529182ac3bc1f51fa2abd56662b7d13f33",
          "topics": [
            "0xdd466e674ea557f56295e2d0218a125ea4b4f0f6f3307b95f85e6110838d6438",
            "0x54cd8467cd1a311e2c066727b9165fbec58a9ad92649af920abc2285a6532623",
            "0x000000000000000000000000303026e9b70c93d37cbd9513aa5808cbee6ccf5f",
            "0x00000000000000000000000038d40946801877b665bc942f4f2c582f81d8c600"
          ],
          "data": "0x00000000000000000000000000000000000000000000000000000000000013880000000000000000000000000000000000000000000000000000000000000064000000000000000000000000b6409396564740a856c3b404d498e4ddedc1504000000000000000000000000000000000000000010000000000000000000000000000000000000000000000000000000000000000000000000000000000000000",
          "blockHash": "0x61f8e3cf482823209d77fd581fc862d5d44d591ac7478e75ab1ef88158a268e4",
          "blockNumber": "0xf7756c",
          "transactionHash": "0x2a7807be79d6a35c3b6203a2828bea445e4dfd304d4534787c8681013ae65ccd",
          "transactionIndex": "0x1a",
          "logIndex": "0x82",
          "removed": false
        },
        {
          "address": "0xc585e0f504613b5fbf874f21af14c65260fb41fa",
          "topics": [
            "0xddf252ad1be2c89b69c2b068fc378daa952ba7f163c4a11628f55a4df523b3ef",
            "0x0000000000000000000000000000000000000000000000000000000000000000",
            "0x000000000000000000000000ac5092a5c7302693a8e39643339109d21dbad723",
            "0x0000000000000000000000000000000000000000000000000000000000000f7a"
          ],
          "data": "0x",
          "blockHash": "0x61f8e3cf482823209d77fd581fc862d5d44d591ac7478e75ab1ef88158a268e4",
          "blockNumber": "0xf7756c",
          "transactionHash": "0x2a7807be79d6a35c3b6203a2828bea445e4dfd304d4534787c8681013ae65ccd",
          "transactionIndex": "0x1a",
          "logIndex": "0x83",
          "removed": false
        },
        {
          "address": "0xb1860d529182ac3bc1f51fa2abd56662b7d13f33",
          "topics": [
            "0xf208f4912782fd25c7f114ca3723a2d5dd6f3bcc3ac8db5af63baa85f711d5ec",
            "0x54cd8467cd1a311e2c066727b9165fbec58a9ad92649af920abc2285a6532623",
            "0x000000000000000000000000c585e0f504613b5fbf874f21af14c65260fb41fa"
          ],
          "data": "0xfffffffffffffffffffffffffffffffffffffffffffffffffffffffffffedb0800000000000000000000000000000000000000000000000000000000000124f8000000000000000000000000000000000000000000000002c69ab5c5a569cf5b0000000000000000000000000000000000000000000000000000000000000f7a",
          "blockHash": "0x61f8e3cf482823209d77fd581fc862d5d44d591ac7478e75ab1ef88158a268e4",
          "blockNumber": "0xf7756c",
          "transactionHash": "0x2a7807be79d6a35c3b6203a2828bea445e4dfd304d4534787c8681013ae65ccd",
          "transactionIndex": "0x1a",
          "logIndex": "0x84",
          "removed": false
        },
        {
          "address": "0x303026e9b70c93d37cbd9513aa5808cbee6ccf5f",
          "topics": [
            "0xddf252ad1be2c89b69c2b068fc378daa952ba7f163c4a11628f55a4df523b3ef",
            "0x000000000000000000000000ac5092a5c7302693a8e39643339109d21dbad723",
            "0x000000000000000000000000b1860d529182ac3bc1f51fa2abd56662b7d13f33"
          ],
          "data": "0x000000000000000000000000000000000000000000000002b5e3af16b1880000",
          "blockHash": "0x61f8e3cf482823209d77fd581fc862d5d44d591ac7478e75ab1ef88158a268e4",
          "blockNumber": "0xf7756c",
          "transactionHash": "0x2a7807be79d6a35c3b6203a2828bea445e4dfd304d4534787c8681013ae65ccd",
          "transactionIndex": "0x1a",
          "logIndex": "0x85",
          "removed": false
        },
        {
          "address": "0x38d40946801877b665bc942f4f2c582f81d8c600",
          "topics": [
            "0xddf252ad1be2c89b69c2b068fc378daa952ba7f163c4a11628f55a4df523b3ef",
            "0x000000000000000000000000ac5092a5c7302693a8e39643339109d21dbad723",
            "0x000000000000000000000000b1860d529182ac3bc1f51fa2abd56662b7d13f33"
          ],
          "data": "0x000000000000000000000000000000000000000000000002b5e3af16b1880000",
          "blockHash": "0x61f8e3cf482823209d77fd581fc862d5d44d591ac7478e75ab1ef88158a268e4",
          "blockNumber": "0xf7756c",
          "transactionHash": "0x2a7807be79d6a35c3b6203a2828bea445e4dfd304d4534787c8681013ae65ccd",
          "transactionIndex": "0x1a",
          "logIndex": "0x86",
          "removed": false
        }
      ],
      "logsBloom": "0x00000000000000040000000000000000800000400000000020000000080000000000100000000000000000100000000000000000000000000000010000000000000000000000000000000008000000000040000000000000000000000000000000000000020000000000000000000800000000200000000000000810000000000000000001000008000000000000000000000001400000000000001000200000400004000000000020000000000000000000002010020000020000000000000000000002000000000000000400000200000000080000000000000000400020000008000000002000000000000002000404010000210000000001000001000080",
      "type": "0x2",
      "transactionHash": "0x2a7807be79d6a35c3b6203a2828bea445e4dfd304d4534787c8681013ae65ccd",
      "transactionIndex": "0x1a",
      "blockHash": "0x61f8e3cf482823209d77fd581fc862d5d44d591ac7478e75ab1ef88158a268e4",
      "blockNumber": "0xf7756c",
      "gasUsed": "0x6f54e",
      "effectiveGasPrice": "0x18df3",
      "from": "0xac5092a5c7302693a8e39643339109d21dbad723",
      "to": "0xc585e0f504613b5fbf874f21af14c65260fb41fa",
      "contractAddress": null,
      "l1BaseFeeScalar": "0x21f9",
      "l1BlobBaseFee": "0x1",
      "l1BlobBaseFeeScalar": "0xdd3ef",
      "l1Fee": "0x2deca2124",
      "l1GasPrice": "0xfb30cf3",
      "l1GasUsed": "0x1505"
    }
  ],
  "libraries": [],
  "pending": [],
  "returns": {},
  "timestamp": 1751770545,
  "chain": 480,
  "commit": "cf95ec0"
}