{
  "transactions": [
    {
      "hash": "0x2a4dc228b16f4c7251f900501ce6b9cecbda9eadcc77da934ed759adb4a96189",
      "transactionType": "CALL",
      "contractName": null,
      "contractAddress": "0x230a2509362d281ee9f8464a7d1de09980e24d57",
      "function": "approve(address,uint256)",
      "arguments": [
        "0x000000000022D473030F116dDEE9F6B43aC78BA3",
        "115792089237316195423570985008687907853269984665640564039457584007913129639935"
      ],
      "transaction": {
        "from": "0xac5092a5c7302693a8e39643339109d21dbad723",
        "to": "0x230a2509362d281ee9f8464a7d1de09980e24d57",
        "gas": "0x10a75",
        "value": "0x0",
        "input": "0x095ea7b3000000000000000000000000000000000022d473030f116ddee9f6b43ac78ba3ffffffffffffffffffffffffffffffffffffffffffffffffffffffffffffffff",
        "nonce": "0x20",
        "chainId": "0x1e0"
      },
      "additionalContracts": [],
      "isFixedGasLimit": false
    },
    {
      "hash": "0x19de326e5735f037bcc2947a38a8304b4d5d4c6942398f2dcbcc8eeeb1de8bb6",
      "transactionType": "CALL",
      "contractName": null,
      "contractAddress": "0x000000000022d473030f116ddee9f6b43ac78ba3",
      "function": "approve(address,address,uint160,uint48)",
      "arguments": [
        "0x230a2509362d281EE9f8464a7d1DE09980e24d57",
        "0xC585E0f504613b5fBf874F21Af14c65260fB41fA",
        "1461501637330902918203684832716283019655932542975",
        "281474976710655"
      ],
      "transaction": {
        "from": "0xac5092a5c7302693a8e39643339109d21dbad723",
        "to": "0x000000000022d473030f116ddee9f6b43ac78ba3",
        "gas": "0x1112d",
        "value": "0x0",
        "input": "0x87517c45000000000000000000000000230a2509362d281ee9f8464a7d1de09980e24d57000000000000000000000000c585e0f504613b5fbf874f21af14c65260fb41fa000000000000000000000000ffffffffffffffffffffffffffffffffffffffff0000000000000000000000000000000000000000000000000000ffffffffffff",
        "nonce": "0x21",
        "chainId": "0x1e0"
      },
      "additionalContracts": [],
      "isFixedGasLimit": false
    },
    {
      "hash": "0x52277eb92bbd504ba8e85b375e01aa25fbbed180bc92f712fcfa29026a80a328",
      "transactionType": "CALL",
      "contractName": null,
      "contractAddress": "0x509d073aec51cd88ac997ef88e18cfb03fbf9b22",
      "function": "approve(address,uint256)",
      "arguments": [
        "0x000000000022D473030F116dDEE9F6B43aC78BA3",
        "115792089237316195423570985008687907853269984665640564039457584007913129639935"
      ],
      "transaction": {
        "from": "0xac5092a5c7302693a8e39643339109d21dbad723",
        "to": "0x509d073aec51cd88ac997ef88e18cfb03fbf9b22",
        "gas": "0x10a75",
        "value": "0x0",
        "input": "0x095ea7b3000000000000000000000000000000000022d473030f116ddee9f6b43ac78ba3ffffffffffffffffffffffffffffffffffffffffffffffffffffffffffffffff",
        "nonce": "0x22",
        "chainId": "0x1e0"
      },
      "additionalContracts": [],
      "isFixedGasLimit": false
    },
    {
      "hash": "0xecb0cfb1f605dfa858e850988fe599de8a90754f7d5ed817973e89c0c4d4ec6f",
      "transactionType": "CALL",
      "contractName": null,
      "contractAddress": "0x000000000022d473030f116ddee9f6b43ac78ba3",
      "function": "approve(address,address,uint160,uint48)",
      "arguments": [
        "0x509D073aec51cd88ac997eF88e18CFb03fBf9B22",
        "0xC585E0f504613b5fBf874F21Af14c65260fB41fA",
        "1461501637330902918203684832716283019655932542975",
        "281474976710655"
      ],
      "transaction": {
        "from": "0xac5092a5c7302693a8e39643339109d21dbad723",
        "to": "0x000000000022d473030f116ddee9f6b43ac78ba3",
        "gas": "0x1112d",
        "value": "0x0",
        "input": "0x87517c45000000000000000000000000509d073aec51cd88ac997ef88e18cfb03fbf9b22000000000000000000000000c585e0f504613b5fbf874f21af14c65260fb41fa000000000000000000000000ffffffffffffffffffffffffffffffffffffffff0000000000000000000000000000000000000000000000000000ffffffffffff",
        "nonce": "0x23",
        "chainId": "0x1e0"
      },
      "additionalContracts": [],
      "isFixedGasLimit": false
    },
    {
      "hash": "0xc37217f18d367cb26fd90326cbf0f407784f288dd08e3e764a278f6cbb1e283d",
      "transactionType": "CALL",
      "contractName": null,
      "contractAddress": "0xc585e0f504613b5fbf874f21af14c65260fb41fa",
      "function": "multicall(bytes[])",
      "arguments": [
        "[0xf7020405000000000000000000000000230a2509362d281ee9f8464a7d1de09980e24d57000000000000000000000000509d073aec51cd88ac997ef88e18cfb03fbf9b22000000000000000000000000000000000000000000000000000000000000138800000000000000000000000000000000000000000000000000000000000000640000000000000000000000008b40fc36f78d24d0949bdbb4a4b3f0d45b75d040000000000000000000000000000000000000000100000000000000000000000000000000000000000000000000000000000000000000000000000000000000e00000000000000000000000000000000000000000000000000000000000000000, 0xdd46508f000000000000000000000000000000000000000000000000000000000000004000000000000000000000000000000000000000000000000000000000686999a70000000000000000000000000000000000000000000000000000000000000400000000000000000000000000000000000000000000000000000000000000004000000000000000000000000000000000000000000000000000000000000000800000000000000000000000000000000000000000000000000000000000000004020d14140000000000000000000000000000000000000000000000000000000000000000000000000000000000000000000000000000000000000000000000040000000000000000000000000000000000000000000000000000000000000080000000000000000000000000000000000000000000000000000000000000024000000000000000000000000000000000000000000000000000000000000002a0000000000000000000000000000000000000000000000000000000000000030000000000000000000000000000000000000000000000000000000000000001a0000000000000000000000000230a2509362d281ee9f8464a7d1de09980e24d57000000000000000000000000509d073aec51cd88ac997ef88e18cfb03fbf9b22000000000000000000000000000000000000000000000000000000000000138800000000000000000000000000000000000000000000000000000000000000640000000000000000000000008b40fc36f78d24d0949bdbb4a4b3f0d45b75d040fffffffffffffffffffffffffffffffffffffffffffffffffffffffffffedb0800000000000000000000000000000000000000000000000000000000000124f80000000000000000000000000000000000000000000000008e1ef127877b8fdf0000000000000000000000000000000000000000000000008ac7230489e800010000000000000000000000000000000000000000000000008ac7230489e80001000000000000000000000000ac5092a5c7302693a8e39643339109d21dbad723000000000000000000000000000000000000000000000000000000000000018000000000000000000000000000000000000000000000000000000000000000000000000000000000000000000000000000000000000000000000000000000040000000000000000000000000230a2509362d281ee9f8464a7d1de09980e24d57000000000000000000000000509d073aec51cd88ac997ef88e18cfb03fbf9b220000000000000000000000000000000000000000000000000000000000000040000000000000000000000000230a2509362d281ee9f8464a7d1de09980e24d57000000000000000000000000ac5092a5c7302693a8e39643339109d21dbad7230000000000000000000000000000000000000000000000000000000000000040000000000000000000000000509d073aec51cd88ac997ef88e18cfb03fbf9b22000000000000000000000000ac5092a5c7302693a8e39643339109d21dbad723]"
      ],
      "transaction": {
        "from": "0xac5092a5c7302693a8e39643339109d21dbad723",
        "to": "0xc585e0f504613b5fbf874f21af14c65260fb41fa",
        "gas": "0xaf09b",
        "value": "0x0",
        "input": "0xac9650d800000000000000000000000000000000000000000000000000000000000000200000000000000000000000000000000000000000000000000000000000000002000000000000000000000000000000000000000000000000000000000000004000000000000000000000000000000000000000000000000000000000000001800000000000000000000000000000000000000000000000000000000000000104f7020405000000000000000000000000230a2509362d281ee9f8464a7d1de09980e24d57000000000000000000000000509d073aec51cd88ac997ef88e18cfb03fbf9b22000000000000000000000000000000000000000000000000000000000000138800000000000000000000000000000000000000000000000000000000000000640000000000000000000000008b40fc36f78d24d0949bdbb4a4b3f0d45b75d040000000000000000000000000000000000000000100000000000000000000000000000000000000000000000000000000000000000000000000000000000000e00000000000000000000000000000000000000000000000000000000000000000000000000000000000000000000000000000000000000000000000000000000000000000000000000000000000000000000000000000000000000464dd46508f000000000000000000000000000000000000000000000000000000000000004000000000000000000000000000000000000000000000000000000000686999a70000000000000000000000000000000000000000000000000000000000000400000000000000000000000000000000000000000000000000000000000000004000000000000000000000000000000000000000000000000000000000000000800000000000000000000000000000000000000000000000000000000000000004020d14140000000000000000000000000000000000000000000000000000000000000000000000000000000000000000000000000000000000000000000000040000000000000000000000000000000000000000000000000000000000000080000000000000000000000000000000000000000000000000000000000000024000000000000000000000000000000000000000000000000000000000000002a0000000000000000000000000000000000000000000000000000000000000030000000000000000000000000000000000000000000000000000000000000001a0000000000000000000000000230a2509362d281ee9f8464a7d1de09980e24d57000000000000000000000000509d073aec51cd88ac997ef88e18cfb03fbf9b22000000000000000000000000000000000000000000000000000000000000138800000000000000000000000000000000000000000000000000000000000000640000000000000000000000008b40fc36f78d24d0949bdbb4a4b3f0d45b75d040fffffffffffffffffffffffffffffffffffffffffffffffffffffffffffedb0800000000000000000000000000000000000000000000000000000000000124f80000000000000000000000000000000000000000000000008e1ef127877b8fdf0000000000000000000000000000000000000000000000008ac7230489e800010000000000000000000000000000000000000000000000008ac7230489e80001000000000000000000000000ac5092a5c7302693a8e39643339109d21dbad723000000000000000000000000000000000000000000000000000000000000018000000000000000000000000000000000000000000000000000000000000000000000000000000000000000000000000000000000000000000000000000000040000000000000000000000000230a2509362d281ee9f8464a7d1de09980e24d57000000000000000000000000509d073aec51cd88ac997ef88e18cfb03fbf9b220000000000000000000000000000000000000000000000000000000000000040000000000000000000000000230a2509362d281ee9f8464a7d1de09980e24d57000000000000000000000000ac5092a5c7302693a8e39643339109d21dbad7230000000000000000000000000000000000000000000000000000000000000040000000000000000000000000509d073aec51cd88ac997ef88e18cfb03fbf9b22000000000000000000000000ac5092a5c7302693a8e39643339109d21dbad72300000000000000000000000000000000000000000000000000000000",
        "nonce": "0x24",
        "chainId": "0x1e0"
      },
      "additionalContracts": [],
      "isFixedGasLimit": false
    }
  ],
  "receipts": [
    {
      "status": "0x1",
      "cumulativeGasUsed": "0x68a6ce",
      "logs": [
        {
          "address": "0x230a2509362d281ee9f8464a7d1de09980e24d57",
          "topics": [
            "0x8c5be1e5ebec7d5bd14f71427d1e84f3dd0314c0f7b2291e5b200ac8c7c3b925",
            "0x000000000000000000000000ac5092a5c7302693a8e39643339109d21dbad723",
            "0x000000000000000000000000000000000022d473030f116ddee9f6b43ac78ba3"
          ],
          "data": "0xffffffffffffffffffffffffffffffffffffffffffffffffffffffffffffffff",
          "blockHash": "0x9094058bd04b6b72a04dcdb2188f5c831560af698038a6a98a6be3126eed74c9",
          "blockNumber": "0xf74864",
          "transactionHash": "0x2a4dc228b16f4c7251f900501ce6b9cecbda9eadcc77da934ed759adb4a96189",
          "transactionIndex": "0xc",
          "logIndex": "0x98",
          "removed": false
        }
      ],
      "logsBloom": "0x00000000000000000000000000000000000000000000000000000000000000000000040000000000000020000000000000000000800000000000000000200000000000000000000000004000000000000000000000000800000000000000000000000000000000000000000000000000000000200000000000000000000000000000000000000000000000000000000000000000000000000000000000000000020000000000000020000000000000000000000000020000000000000000000000000000000000000000000000000000000000000000000000000000000200000010000000000000000000000000000000000000000000000000000000000000",
      "type": "0x2",
      "transactionHash": "0x2a4dc228b16f4c7251f900501ce6b9cecbda9eadcc77da934ed759adb4a96189",
      "transactionIndex": "0xc",
      "blockHash": "0x9094058bd04b6b72a04dcdb2188f5c831560af698038a6a98a6be3126eed74c9",
      "blockNumber": "0xf74864",
      "gasUsed": "0xb632",
      "effectiveGasPrice": "0x18ce8",
      "from": "0xac5092a5c7302693a8e39643339109d21dbad723",
      "to": "0x230a2509362d281ee9f8464a7d1de09980e24d57",
      "contractAddress": null,
      "l1BaseFeeScalar": "0x21f9",
      "l1BlobBaseFee": "0x1",
      "l1BlobBaseFeeScalar": "0xdd3ef",
      "l1Fee": "0xeabd9537",
      "l1GasPrice": "0x10de8e8a",
      "l1GasUsed": "0x640"
    },
    {
      "status": "0x1",
      "cumulativeGasUsed": "0x696198",
      "logs": [
        {
          "address": "0x000000000022d473030f116ddee9f6b43ac78ba3",
          "topics": [
            "0xda9fa7c1b00402c17d0161b249b1ab8bbec047c5a52207b9c112deffd817036b",
            "0x000000000000000000000000ac5092a5c7302693a8e39643339109d21dbad723",
            "0x000000000000000000000000230a2509362d281ee9f8464a7d1de09980e24d57",
            "0x000000000000000000000000c585e0f504613b5fbf874f21af14c65260fb41fa"
          ],
          "data": "0x000000000000000000000000ffffffffffffffffffffffffffffffffffffffff0000000000000000000000000000000000000000000000000000ffffffffffff",
          "blockHash": "0x9094058bd04b6b72a04dcdb2188f5c831560af698038a6a98a6be3126eed74c9",
          "blockNumber": "0xf74864",
          "transactionHash": "0x19de326e5735f037bcc2947a38a8304b4d5d4c6942398f2dcbcc8eeeb1de8bb6",
          "transactionIndex": "0xd",
          "logIndex": "0x99",
          "removed": false
        }
      ],
      "logsBloom": "0x00010000000000000000000000000000000000000000000000008000800000000000000000000000000000000000000000000000000000000000010000080000000000000000000000000000000000000000000000000000000000000000000000000000000000000000000000000000000000200000800000000000000000000020000000000000000000000000000000000000000000000000000000000000000000000000000020000000000000000000000010020000000000080000000000000000000000000000000000000000000000000000000040000000000000000000000000000000000000000000000400000000000000000000000000000400",
      "type": "0x2",
      "transactionHash": "0x19de326e5735f037bcc2947a38a8304b4d5d4c6942398f2dcbcc8eeeb1de8bb6",
      "transactionIndex": "0xd",
      "blockHash": "0x9094058bd04b6b72a04dcdb2188f5c831560af698038a6a98a6be3126eed74c9",
      "blockNumber": "0xf74864",
      "gasUsed": "0xbaca",
      "effectiveGasPrice": "0x18ce8",
      "from": "0xac5092a5c7302693a8e39643339109d21dbad723",
      "to": "0x000000000022d473030f116ddee9f6b43ac78ba3",
      "contractAddress": null,
      "l1BaseFeeScalar": "0x21f9",
      "l1BlobBaseFee": "0x1",
      "l1BlobBaseFeeScalar": "0xdd3ef",
      "l1Fee": "0x105566d1a",
      "l1GasPrice": "0x10de8e8a",
      "l1GasUsed": "0x6f5"
    },
    {
      "status": "0x1",
      "cumulativeGasUsed": "0x6a17ca",
      "logs": [
        {
          "address": "0x509d073aec51cd88ac997ef88e18cfb03fbf9b22",
          "topics": [
            "0x8c5be1e5ebec7d5bd14f71427d1e84f3dd0314c0f7b2291e5b200ac8c7c3b925",
            "0x000000000000000000000000ac5092a5c7302693a8e39643339109d21dbad723",
            "0x000000000000000000000000000000000022d473030f116ddee9f6b43ac78ba3"
          ],
          "data": "0xffffffffffffffffffffffffffffffffffffffffffffffffffffffffffffffff",
          "blockHash": "0x9094058bd04b6b72a04dcdb2188f5c831560af698038a6a98a6be3126eed74c9",
          "blockNumber": "0xf74864",
          "transactionHash": "0x52277eb92bbd504ba8e85b375e01aa25fbbed180bc92f712fcfa29026a80a328",
          "transactionIndex": "0xe",
          "logIndex": "0x9a",
          "removed": false
        }
      ],
      "logsBloom": "0x00000000000000000000000000000000000000000000000000000000000000020000000000000000000000000000000000000000800000000000000000200000000000000000000000004000000000000000000000000c00000000000000000000000000000000000000000000000200000000200000000000000000000000000000000000000000000000000000000000000000000000000000000000000000020000000000000020000000000000000000000000020000000000000000000000000000000000000000000000000000000000000000000000000000000000000010000000000000000000000000000000000000000000000000000000000000",
      "type": "0x2",
      "transactionHash": "0x52277eb92bbd504ba8e85b375e01aa25fbbed180bc92f712fcfa29026a80a328",
      "transactionIndex": "0xe",
      "blockHash": "0x9094058bd04b6b72a04dcdb2188f5c831560af698038a6a98a6be3126eed74c9",
      "blockNumber": "0xf74864",
      "gasUsed": "0xb632",
      "effectiveGasPrice": "0x18ce8",
      "from": "0xac5092a5c7302693a8e39643339109d21dbad723",
      "to": "0x509d073aec51cd88ac997ef88e18cfb03fbf9b22",
      "contractAddress": null,
      "l1BaseFeeScalar": "0x21f9",
      "l1BlobBaseFee": "0x1",
      "l1BlobBaseFeeScalar": "0xdd3ef",
      "l1Fee": "0xeabd9537",
      "l1GasPrice": "0x10de8e8a",
      "l1GasUsed": "0x640"
    },
    {
      "status": "0x1",
      "cumulativeGasUsed": "0x750c6e",
      "logs": [
        {
          "address": "0x000000000022d473030f116ddee9f6b43ac78ba3",
          "topics": [
            "0xda9fa7c1b00402c17d0161b249b1ab8bbec047c5a52207b9c112deffd817036b",
            "0x000000000000000000000000ac5092a5c7302693a8e39643339109d21dbad723",
            "0x000000000000000000000000509d073aec51cd88ac997ef88e18cfb03fbf9b22",
            "0x000000000000000000000000c585e0f504613b5fbf874f21af14c65260fb41fa"
          ],
          "data": "0x000000000000000000000000ffffffffffffffffffffffffffffffffffffffff0000000000000000000000000000000000000000000000000000ffffffffffff",
          "blockHash": "0x9094058bd04b6b72a04dcdb2188f5c831560af698038a6a98a6be3126eed74c9",
          "blockNumber": "0xf74864",
          "transactionHash": "0xecb0cfb1f605dfa858e850988fe599de8a90754f7d5ed817973e89c0c4d4ec6f",
          "transactionIndex": "0x11",
          "logIndex": "0xb1",
          "removed": false
        }
      ],
      "logsBloom": "0x000100000000000000000000000000000000000000000080000000000000000000000000000000000000000000000000000000000000000000000100000800000000000000000000000000000000000000000000000000000000000000000000000000000000000000000000000000000000002000000000000000000000000000200000000000000000000000000000000000000000000000000000000000000000000000000000200000000000000000000000100200000000000c0040000000000000000000000000000000000000000000000000000040000000000000000000000000000000000000000000000400000000000000000000000000000400",
      "type": "0x2",
      "transactionHash": "0xecb0cfb1f605dfa858e850988fe599de8a90754f7d5ed817973e89c0c4d4ec6f",
      "transactionIndex": "0x11",
      "blockHash": "0x9094058bd04b6b72a04dcdb2188f5c831560af698038a6a98a6be3126eed74c9",
      "blockNumber": "0xf74864",
      "gasUsed": "0xbaca",
      "effectiveGasPrice": "0x18ce8",
      "from": "0xac5092a5c7302693a8e39643339109d21dbad723",
      "to": "0x000000000022d473030f116ddee9f6b43ac78ba3",
      "contractAddress": null,
      "l1BaseFeeScalar": "0x21f9",
      "l1BlobBaseFee": "0x1",
      "l1BlobBaseFeeScalar": "0xdd3ef",
      "l1Fee": "0x105566d1a",
      "l1GasPrice": "0x10de8e8a",
      "l1GasUsed": "0x6f5"
    },
    {
      "status": "0x1",
      "cumulativeGasUsed": "0x7c8760",
      "logs": [
        {
          "address": "0xb1860d529182ac3bc1f51fa2abd56662b7d13f33",
          "topics": [
            "0xdd466e674ea557f56295e2d0218a125ea4b4f0f6f3307b95f85e6110838d6438",
            "0xa037f09ef5dda00aeff42cdbae7d8251fa4529ba97ed425854fd5c9e9705862f",
            "0x000000000000000000000000230a2509362d281ee9f8464a7d1de09980e24d57",
            "0x000000000000000000000000509d073aec51cd88ac997ef88e18cfb03fbf9b22"
          ],
          "data": "0x000000000000000000000000000000000000000000000000000000000000138800000000000000000000000000000000000000000000000000000000000000640000000000000000000000008b40fc36f78d24d0949bdbb4a4b3f0d45b75d04000000000000000000000000000000000000000010000000000000000000000000000000000000000000000000000000000000000000000000000000000000000",
          "blockHash": "0x9094058bd04b6b72a04dcdb2188f5c831560af698038a6a98a6be3126eed74c9",
          "blockNumber": "0xf74864",
          "transactionHash": "0xc37217f18d367cb26fd90326cbf0f407784f288dd08e3e764a278f6cbb1e283d",
          "transactionIndex": "0x12",
          "logIndex": "0xb2",
          "removed": false
        },
        {
          "address": "0xc585e0f504613b5fbf874f21af14c65260fb41fa",
          "topics": [
            "0xddf252ad1be2c89b69c2b068fc378daa952ba7f163c4a11628f55a4df523b3ef",
            "0x0000000000000000000000000000000000000000000000000000000000000000",
            "0x000000000000000000000000ac5092a5c7302693a8e39643339109d21dbad723",
            "0x0000000000000000000000000000000000000000000000000000000000000f6b"
          ],
          "data": "0x",
          "blockHash": "0x9094058bd04b6b72a04dcdb2188f5c831560af698038a6a98a6be3126eed74c9",
          "blockNumber": "0xf74864",
          "transactionHash": "0xc37217f18d367cb26fd90326cbf0f407784f288dd08e3e764a278f6cbb1e283d",
          "transactionIndex": "0x12",
          "logIndex": "0xb3",
          "removed": false
        },
        {
          "address": "0xb1860d529182ac3bc1f51fa2abd56662b7d13f33",
          "topics": [
            "0xf208f4912782fd25c7f114ca3723a2d5dd6f3bcc3ac8db5af63baa85f711d5ec",
            "0xa037f09ef5dda00aeff42cdbae7d8251fa4529ba97ed425854fd5c9e9705862f",
            "0x000000000000000000000000c585e0f504613b5fbf874f21af14c65260fb41fa"
          ],
          "data": "0xfffffffffffffffffffffffffffffffffffffffffffffffffffffffffffedb0800000000000000000000000000000000000000000000000000000000000124f80000000000000000000000000000000000000000000000008e1ef127877b8fdf0000000000000000000000000000000000000000000000000000000000000f6b",
          "blockHash": "0x9094058bd04b6b72a04dcdb2188f5c831560af698038a6a98a6be3126eed74c9",
          "blockNumber": "0xf74864",
          "transactionHash": "0xc37217f18d367cb26fd90326cbf0f407784f288dd08e3e764a278f6cbb1e283d",
          "transactionIndex": "0x12",
          "logIndex": "0xb4",
          "removed": false
        },
        {
          "address": "0x230a2509362d281ee9f8464a7d1de09980e24d57",
          "topics": [
            "0xddf252ad1be2c89b69c2b068fc378daa952ba7f163c4a11628f55a4df523b3ef",
            "0x000000000000000000000000ac5092a5c7302693a8e39643339109d21dbad723",
            "0x000000000000000000000000b1860d529182ac3bc1f51fa2abd56662b7d13f33"
          ],
          "data": "0x0000000000000000000000000000000000000000000000008ac7230489e80000",
          "blockHash": "0x9094058bd04b6b72a04dcdb2188f5c831560af698038a6a98a6be3126eed74c9",
          "blockNumber": "0xf74864",
          "transactionHash": "0xc37217f18d367cb26fd90326cbf0f407784f288dd08e3e764a278f6cbb1e283d",
          "transactionIndex": "0x12",
          "logIndex": "0xb5",
          "removed": false
        },
        {
          "address": "0x509d073aec51cd88ac997ef88e18cfb03fbf9b22",
          "topics": [
            "0xddf252ad1be2c89b69c2b068fc378daa952ba7f163c4a11628f55a4df523b3ef",
            "0x000000000000000000000000ac5092a5c7302693a8e39643339109d21dbad723",
            "0x000000000000000000000000b1860d529182ac3bc1f51fa2abd56662b7d13f33"
          ],
          "data": "0x0000000000000000000000000000000000000000000000008ac7230489e80000",
          "blockHash": "0x9094058bd04b6b72a04dcdb2188f5c831560af698038a6a98a6be3126eed74c9",
          "blockNumber": "0xf74864",
          "transactionHash": "0xc37217f18d367cb26fd90326cbf0f407784f288dd08e3e764a278f6cbb1e283d",
          "transactionIndex": "0x12",
          "logIndex": "0xb6",
          "removed": false
        }
      ],
      "logsBloom": "0x00000080000000000000000000000000000000400000008020008000800000020080040000000000000020000000000000000000000000000000010000000000000000000000000000000008000000000040000000000400000000800000000000000000020000000000000000000a00000000200000800000000810000000000000000001000008000000000080000000000001000000000000004000200000000004000000000020000000000000000000040010020000020000040040000000000002000000000000000000000000000000000000000000000000400220000008000000000000000000000000000404010000010000000000000000000000",
      "type": "0x2",
      "transactionHash": "0xc37217f18d367cb26fd90326cbf0f407784f288dd08e3e764a278f6cbb1e283d",
      "transactionIndex": "0x12",
      "blockHash": "0x9094058bd04b6b72a04dcdb2188f5c831560af698038a6a98a6be3126eed74c9",
      "blockNumber": "0xf74864",
      "gasUsed": "0x77af2",
      "effectiveGasPrice": "0x18ce8",
      "from": "0xac5092a5c7302693a8e39643339109d21dbad723",
      "to": "0xc585e0f504613b5fbf874f21af14c65260fb41fa",
      "contractAddress": null,
      "l1BaseFeeScalar": "0x21f9",
      "l1BlobBaseFee": "0x1",
      "l1BlobBaseFeeScalar": "0xdd3ef",
      "l1Fee": "0x3158c1ade",
      "l1GasPrice": "0x10de8e8a",
      "l1GasUsed": "0x1505"
    }
  ],
  "libraries": [],
  "pending": [],
  "returns": {},
  "timestamp": 1751747489,
  "chain": 480,
  "commit": "cf95ec0"
}