{
  "transactions": [
    {
      "hash": "0xd97c5517cd4d870f7ba050f315448e62096d2af671cee593c45de7bc0a3327b0",
      "transactionType": "CALL",
      "contractName": null,
      "contractAddress": "0xa815f0f2853cb3b189fe94172f824f03f24989bd",
      "function": "approve(address,uint256)",
      "arguments": [
        "0x000000000022D473030F116dDEE9F6B43aC78BA3",
        "115792089237316195423570985008687907853269984665640564039457584007913129639935"
      ],
      "transaction": {
        "from": "0xac5092a5c7302693a8e39643339109d21dbad723",
        "to": "0xa815f0f2853cb3b189fe94172f824f03f24989bd",
        "gas": "0x10da9",
        "value": "0x0",
        "input": "0x095ea7b3000000000000000000000000000000000022d473030f116ddee9f6b43ac78ba3ffffffffffffffffffffffffffffffffffffffffffffffffffffffffffffffff",
        "nonce": "0x6",
        "chainId": "0x1e0"
      },
      "additionalContracts": [],
      "isFixedGasLimit": false
    },
    {
      "hash": "0x2e4bf99b830d4a97fcf4fb82174133d7aef94c55cb644e13ebdcb5de76e2f3f7",
      "transactionType": "CALL",
      "contractName": null,
      "contractAddress": "0x000000000022d473030f116ddee9f6b43ac78ba3",
      "function": "approve(address,address,uint160,uint48)",
      "arguments": [
        "0xA815F0F2853Cb3b189FE94172F824F03F24989bD",
        "0xC585E0f504613b5fBf874F21Af14c65260fB41fA",
        "1461501637330902918203684832716283019655932542975",
        "281474976710655"
      ],
      "transaction": {
        "from": "0xac5092a5c7302693a8e39643339109d21dbad723",
        "to": "0x000000000022d473030f116ddee9f6b43ac78ba3",
        "gas": "0x1112d",
        "value": "0x0",
        "input": "0x87517c45000000000000000000000000a815f0f2853cb3b189fe94172f824f03f24989bd000000000000000000000000c585e0f504613b5fbf874f21af14c65260fb41fa000000000000000000000000ffffffffffffffffffffffffffffffffffffffff0000000000000000000000000000000000000000000000000000ffffffffffff",
        "nonce": "0x7",
        "chainId": "0x1e0"
      },
      "additionalContracts": [],
      "isFixedGasLimit": false
    },
    {
      "hash": "0xf5f9ff6aa43dffdb2aa3bc478ddbca8309a58fe27dc4f770a259e625857ff08c",
      "transactionType": "CALL",
      "contractName": null,
      "contractAddress": "0x92c79a67fa30d1e42cbb3ca9401af2952369b973",
      "function": "approve(address,uint256)",
      "arguments": [
        "0x000000000022D473030F116dDEE9F6B43aC78BA3",
        "115792089237316195423570985008687907853269984665640564039457584007913129639935"
      ],
      "transaction": {
        "from": "0xac5092a5c7302693a8e39643339109d21dbad723",
        "to": "0x92c79a67fa30d1e42cbb3ca9401af2952369b973",
        "gas": "0x10da9",
        "value": "0x0",
        "input": "0x095ea7b3000000000000000000000000000000000022d473030f116ddee9f6b43ac78ba3ffffffffffffffffffffffffffffffffffffffffffffffffffffffffffffffff",
        "nonce": "0x8",
        "chainId": "0x1e0"
      },
      "additionalContracts": [],
      "isFixedGasLimit": false
    },
    {
      "hash": "0xb23912ca3d52458b78c02b1597c84ad310cb8d00100895a543aa5b667e7cb8df",
      "transactionType": "CALL",
      "contractName": null,
      "contractAddress": "0x000000000022d473030f116ddee9f6b43ac78ba3",
      "function": "approve(address,address,uint160,uint48)",
      "arguments": [
        "0x92C79A67FA30D1e42cBB3CA9401AF2952369b973",
        "0xC585E0f504613b5fBf874F21Af14c65260fB41fA",
        "1461501637330902918203684832716283019655932542975",
        "281474976710655"
      ],
      "transaction": {
        "from": "0xac5092a5c7302693a8e39643339109d21dbad723",
        "to": "0x000000000022d473030f116ddee9f6b43ac78ba3",
        "gas": "0x1112d",
        "value": "0x0",
        "input": "0x87517c4500000000000000000000000092c79a67fa30d1e42cbb3ca9401af2952369b973000000000000000000000000c585e0f504613b5fbf874f21af14c65260fb41fa000000000000000000000000ffffffffffffffffffffffffffffffffffffffff0000000000000000000000000000000000000000000000000000ffffffffffff",
        "nonce": "0x9",
        "chainId": "0x1e0"
      },
      "additionalContracts": [],
      "isFixedGasLimit": false
    },
    {
      "hash": "0xf4c5ea9bf3b685c9005c133cd39ca64130e4457d25d2fd30b3b72f74835df185",
      "transactionType": "CALL",
      "contractName": null,
      "contractAddress": "0xc585e0f504613b5fbf874f21af14c65260fb41fa",
      "function": "multicall(bytes[])",
      "arguments": [
        "[0xf702040500000000000000000000000092c79a67fa30d1e42cbb3ca9401af2952369b973000000000000000000000000a815f0f2853cb3b189fe94172f824f03f24989bd00000000000000000000000000000000000000000000000000000000000013880000000000000000000000000000000000000000000000000000000000000064000000000000000000000000e550a677bb302d43dcc9bd30dc634cfe8369cac0000000000000000000000000000000000000000100000000000000000000000000000000000000000000000000000000000000000000000000000000000000e00000000000000000000000000000000000000000000000000000000000000000, 0xdd46508f000000000000000000000000000000000000000000000000000000000000004000000000000000000000000000000000000000000000000000000000686858310000000000000000000000000000000000000000000000000000000000000400000000000000000000000000000000000000000000000000000000000000004000000000000000000000000000000000000000000000000000000000000000800000000000000000000000000000000000000000000000000000000000000004020d14140000000000000000000000000000000000000000000000000000000000000000000000000000000000000000000000000000000000000000000000040000000000000000000000000000000000000000000000000000000000000080000000000000000000000000000000000000000000000000000000000000024000000000000000000000000000000000000000000000000000000000000002a0000000000000000000000000000000000000000000000000000000000000030000000000000000000000000000000000000000000000000000000000000001a000000000000000000000000092c79a67fa30d1e42cbb3ca9401af2952369b973000000000000000000000000a815f0f2853cb3b189fe94172f824f03f24989bd00000000000000000000000000000000000000000000000000000000000013880000000000000000000000000000000000000000000000000000000000000064000000000000000000000000e550a677bb302d43dcc9bd30dc634cfe8369cac0fffffffffffffffffffffffffffffffffffffffffffffffffffffffffffedb0800000000000000000000000000000000000000000000000000000000000124f80000000000000000000000000000000000000000000000000e364b50c0bf8e630000000000000000000000000000000000000000000000000de0b6b3a76400010000000000000000000000000000000000000000000000000de0b6b3a7640001000000000000000000000000ac5092a5c7302693a8e39643339109d21dbad72300000000000000000000000000000000000000000000000000000000000001800000000000000000000000000000000000000000000000000000000000000000000000000000000000000000000000000000000000000000000000000000004000000000000000000000000092c79a67fa30d1e42cbb3ca9401af2952369b973000000000000000000000000a815f0f2853cb3b189fe94172f824f03f24989bd000000000000000000000000000000000000000000000000000000000000004000000000000000000000000092c79a67fa30d1e42cbb3ca9401af2952369b973000000000000000000000000ac5092a5c7302693a8e39643339109d21dbad7230000000000000000000000000000000000000000000000000000000000000040000000000000000000000000a815f0f2853cb3b189fe94172f824f03f24989bd000000000000000000000000ac5092a5c7302693a8e39643339109d21dbad723]"
      ],
      "transaction": {
        "from": "0xac5092a5c7302693a8e39643339109d21dbad723",
        "to": "0xc585e0f504613b5fbf874f21af14c65260fb41fa",
        "gas": "0xbcbfb",
        "value": "0x0",
        "input": "0xac9650d800000000000000000000000000000000000000000000000000000000000000200000000000000000000000000000000000000000000000000000000000000002000000000000000000000000000000000000000000000000000000000000004000000000000000000000000000000000000000000000000000000000000001800000000000000000000000000000000000000000000000000000000000000104f702040500000000000000000000000092c79a67fa30d1e42cbb3ca9401af2952369b973000000000000000000000000a815f0f2853cb3b189fe94172f824f03f24989bd00000000000000000000000000000000000000000000000000000000000013880000000000000000000000000000000000000000000000000000000000000064000000000000000000000000e550a677bb302d43dcc9bd30dc634cfe8369cac0000000000000000000000000000000000000000100000000000000000000000000000000000000000000000000000000000000000000000000000000000000e00000000000000000000000000000000000000000000000000000000000000000000000000000000000000000000000000000000000000000000000000000000000000000000000000000000000000000000000000000000000000464dd46508f000000000000000000000000000000000000000000000000000000000000004000000000000000000000000000000000000000000000000000000000686858310000000000000000000000000000000000000000000000000000000000000400000000000000000000000000000000000000000000000000000000000000004000000000000000000000000000000000000000000000000000000000000000800000000000000000000000000000000000000000000000000000000000000004020d14140000000000000000000000000000000000000000000000000000000000000000000000000000000000000000000000000000000000000000000000040000000000000000000000000000000000000000000000000000000000000080000000000000000000000000000000000000000000000000000000000000024000000000000000000000000000000000000000000000000000000000000002a0000000000000000000000000000000000000000000000000000000000000030000000000000000000000000000000000000000000000000000000000000001a000000000000000000000000092c79a67fa30d1e42cbb3ca9401af2952369b973000000000000000000000000a815f0f2853cb3b189fe94172f824f03f24989bd00000000000000000000000000000000000000000000000000000000000013880000000000000000000000000000000000000000000000000000000000000064000000000000000000000000e550a677bb302d43dcc9bd30dc634cfe8369cac0fffffffffffffffffffffffffffffffffffffffffffffffffffffffffffedb0800000000000000000000000000000000000000000000000000000000000124f80000000000000000000000000000000000000000000000000e364b50c0bf8e630000000000000000000000000000000000000000000000000de0b6b3a76400010000000000000000000000000000000000000000000000000de0b6b3a7640001000000000000000000000000ac5092a5c7302693a8e39643339109d21dbad72300000000000000000000000000000000000000000000000000000000000001800000000000000000000000000000000000000000000000000000000000000000000000000000000000000000000000000000000000000000000000000000004000000000000000000000000092c79a67fa30d1e42cbb3ca9401af2952369b973000000000000000000000000a815f0f2853cb3b189fe94172f824f03f24989bd000000000000000000000000000000000000000000000000000000000000004000000000000000000000000092c79a67fa30d1e42cbb3ca9401af2952369b973000000000000000000000000ac5092a5c7302693a8e39643339109d21dbad7230000000000000000000000000000000000000000000000000000000000000040000000000000000000000000a815f0f2853cb3b189fe94172f824f03f24989bd000000000000000000000000ac5092a5c7302693a8e39643339109d21dbad72300000000000000000000000000000000000000000000000000000000",
        "nonce": "0xa",
        "chainId": "0x1e0"
      },
      "additionalContracts": [],
      "isFixedGasLimit": false
    }
  ],
  "receipts": [
    {
      "status": "0x1",
      "cumulativeGasUsed": "0x42a11c",
      "logs": [
        {
          "address": "0xa815f0f2853cb3b189fe94172f824f03f24989bd",
          "topics": [
            "0x8c5be1e5ebec7d5bd14f71427d1e84f3dd0314c0f7b2291e5b200ac8c7c3b925",
            "0x000000000000000000000000ac5092a5c7302693a8e39643339109d21dbad723",
            "0x000000000000000000000000000000000022d473030f116ddee9f6b43ac78ba3"
          ],
          "data": "0xffffffffffffffffffffffffffffffffffffffffffffffffffffffffffffffff",
          "blockHash": "0xf4b8b66de4db4264ef7a90f94774144d487adcfcd9d3cc3cbdf56114ff3eb154",
          "blockNumber": "0xf6a7aa",
          "transactionHash": "0xd97c5517cd4d870f7ba050f315448e62096d2af671cee593c45de7bc0a3327b0",
          "transactionIndex": "0xc",
          "logIndex": "0x43",
          "removed": false
        }
      ],
      "logsBloom": "0x00000000000000000000000000000000000000000000000000000000000000000000000000000000000000000000000000000000800000000000000000200000000400000000000000004000000000080000000000000800000000000000000000000000000000000000000000000000000000200000000000000000000000000000000000000000000000000000000000000000000000000000000000000000020000000000000020000000000000000000000000020000000000000000000000000000000000000000000000000000000000000000000000000000000008000010000000000000000000000000000000000000000000000000000000000000",
      "type": "0x2",
      "transactionHash": "0xd97c5517cd4d870f7ba050f315448e62096d2af671cee593c45de7bc0a3327b0",
      "transactionIndex": "0xc",
      "blockHash": "0xf4b8b66de4db4264ef7a90f94774144d487adcfcd9d3cc3cbdf56114ff3eb154",
      "blockNumber": "0xf6a7aa",
      "gasUsed": "0xb863",
      "effectiveGasPrice": "0x18a32",
      "from": "0xac5092a5c7302693a8e39643339109d21dbad723",
      "to": "0xa815f0f2853cb3b189fe94172f824f03f24989bd",
      "contractAddress": null,
      "l1BaseFeeScalar": "0x21f9",
      "l1BlobBaseFee": "0x1",
      "l1BlobBaseFeeScalar": "0xdd3ef",
      "l1Fee": "0xcdce795e",
      "l1GasPrice": "0xeca40dc",
      "l1GasUsed": "0x640"
    },
    {
      "status": "0x1",
      "cumulativeGasUsed": "0x435be6",
      "logs": [
        {
          "address": "0x000000000022d473030f116ddee9f6b43ac78ba3",
          "topics": [
            "0xda9fa7c1b00402c17d0161b249b1ab8bbec047c5a52207b9c112deffd817036b",
            "0x000000000000000000000000ac5092a5c7302693a8e39643339109d21dbad723",
            "0x000000000000000000000000a815f0f2853cb3b189fe94172f824f03f24989bd",
            "0x000000000000000000000000c585e0f504613b5fbf874f21af14c65260fb41fa"
          ],
          "data": "0x000000000000000000000000ffffffffffffffffffffffffffffffffffffffff0000000000000000000000000000000000000000000000000000ffffffffffff",
          "blockHash": "0xf4b8b66de4db4264ef7a90f94774144d487adcfcd9d3cc3cbdf56114ff3eb154",
          "blockNumber": "0xf6a7aa",
          "transactionHash": "0x2e4bf99b830d4a97fcf4fb82174133d7aef94c55cb644e13ebdcb5de76e2f3f7",
          "transactionIndex": "0xd",
          "logIndex": "0x44",
          "removed": false
        }
      ],
      "logsBloom": "0x00010000000000000000000000000000000000000000000000000000000000000000000000000000000000000000000000000000000000000000010000080000000000000000000000000400000000000000000000000000000000000000000000000000000000000000000000000000000000200000000000000000000000000020000000000000000000000000000000000000000000000000000000000000000000000000000020000000000000000000000010020000000000080000000000000000000000000000080000000800000000000000000040000000000000000000000000000000000000000000000400000000000000000000000000000400",
      "type": "0x2",
      "transactionHash": "0x2e4bf99b830d4a97fcf4fb82174133d7aef94c55cb644e13ebdcb5de76e2f3f7",
      "transactionIndex": "0xd",
      "blockHash": "0xf4b8b66de4db4264ef7a90f94774144d487adcfcd9d3cc3cbdf56114ff3eb154",
      "blockNumber": "0xf6a7aa",
      "gasUsed": "0xbaca",
      "effectiveGasPrice": "0x18a32",
      "from": "0xac5092a5c7302693a8e39643339109d21dbad723",
      "to": "0x000000000022d473030f116ddee9f6b43ac78ba3",
      "contractAddress": null,
      "l1BaseFeeScalar": "0x21f9",
      "l1BlobBaseFee": "0x1",
      "l1BlobBaseFeeScalar": "0xdd3ef",
      "l1Fee": "0xe5200ff6",
      "l1GasPrice": "0xeca40dc",
      "l1GasUsed": "0x6f5"
    },
    {
      "status": "0x1",
      "cumulativeGasUsed": "0x441449",
      "logs": [
        {
          "address": "0x92c79a67fa30d1e42cbb3ca9401af2952369b973",
          "topics": [
            "0x8c5be1e5ebec7d5bd14f71427d1e84f3dd0314c0f7b2291e5b200ac8c7c3b925",
            "0x000000000000000000000000ac5092a5c7302693a8e39643339109d21dbad723",
            "0x000000000000000000000000000000000022d473030f116ddee9f6b43ac78ba3"
          ],
          "data": "0xffffffffffffffffffffffffffffffffffffffffffffffffffffffffffffffff",
          "blockHash": "0xf4b8b66de4db4264ef7a90f94774144d487adcfcd9d3cc3cbdf56114ff3eb154",
          "blockNumber": "0xf6a7aa",
          "transactionHash": "0xf5f9ff6aa43dffdb2aa3bc478ddbca8309a58fe27dc4f770a259e625857ff08c",
          "transactionIndex": "0xe",
          "logIndex": "0x45",
          "removed": false
        }
      ],
      "logsBloom": "0x00000000000000000000000000000000000000000000000000000000000000000000000000000000000000000000000000000000800000000000000000200000000000000000000008004000000000000000000000000800000000000000000000000000000000000000000000000000000000200000000000000000000000000000000000000000000000000000000000000000000000000000000000000000020000000000000020000000000000000000000000020000000000000000000000000000000000000000000000000000000000000000040000000000000000000010000000000000000000000001000000000000000000000000000000000000",
      "type": "0x2",
      "transactionHash": "0xf5f9ff6aa43dffdb2aa3bc478ddbca8309a58fe27dc4f770a259e625857ff08c",
      "transactionIndex": "0xe",
      "blockHash": "0xf4b8b66de4db4264ef7a90f94774144d487adcfcd9d3cc3cbdf56114ff3eb154",
      "blockNumber": "0xf6a7aa",
      "gasUsed": "0xb863",
      "effectiveGasPrice": "0x18a32",
      "from": "0xac5092a5c7302693a8e39643339109d21dbad723",
      "to": "0x92c79a67fa30d1e42cbb3ca9401af2952369b973",
      "contractAddress": null,
      "l1BaseFeeScalar": "0x21f9",
      "l1BlobBaseFee": "0x1",
      "l1BlobBaseFeeScalar": "0xdd3ef",
      "l1Fee": "0xcdce795e",
      "l1GasPrice": "0xeca40dc",
      "l1GasUsed": "0x640"
    },
    {
      "status": "0x1",
      "cumulativeGasUsed": "0x44cf13",
      "logs": [
        {
          "address": "0x000000000022d473030f116ddee9f6b43ac78ba3",
          "topics": [
            "0xda9fa7c1b00402c17d0161b249b1ab8bbec047c5a52207b9c112deffd817036b",
            "0x000000000000000000000000ac5092a5c7302693a8e39643339109d21dbad723",
            "0x00000000000000000000000092c79a67fa30d1e42cbb3ca9401af2952369b973",
            "0x000000000000000000000000c585e0f504613b5fbf874f21af14c65260fb41fa"
          ],
          "data": "0x000000000000000000000000ffffffffffffffffffffffffffffffffffffffff0000000000000000000000000000000000000000000000000000ffffffffffff",
          "blockHash": "0xf4b8b66de4db4264ef7a90f94774144d487adcfcd9d3cc3cbdf56114ff3eb154",
          "blockNumber": "0xf6a7aa",
          "transactionHash": "0xb23912ca3d52458b78c02b1597c84ad310cb8d00100895a543aa5b667e7cb8df",
          "transactionIndex": "0xf",
          "logIndex": "0x46",
          "removed": false
        }
      ],
      "logsBloom": "0x00010000000000000000000000000000000000000000000000000000000000000000000000000000000000000000000000000000000000000000010000080000000000000000000000000000000000000000000000000000000000000080000000000000000000000000000000000000000000210000000000000000000000000020000000000000000000000000000000000000020000000000000000000000000000000000000020000000000000000000000010020000000000080000000000000000000000000000000000000000000000000000000040000000000000000000000000000000000000000000000400000000000000000000000000000400",
      "type": "0x2",
      "transactionHash": "0xb23912ca3d52458b78c02b1597c84ad310cb8d00100895a543aa5b667e7cb8df",
      "transactionIndex": "0xf",
      "blockHash": "0xf4b8b66de4db4264ef7a90f94774144d487adcfcd9d3cc3cbdf56114ff3eb154",
      "blockNumber": "0xf6a7aa",
      "gasUsed": "0xbaca",
      "effectiveGasPrice": "0x18a32",
      "from": "0xac5092a5c7302693a8e39643339109d21dbad723",
      "to": "0x000000000022d473030f116ddee9f6b43ac78ba3",
      "contractAddress": null,
      "l1BaseFeeScalar": "0x21f9",
      "l1BlobBaseFee": "0x1",
      "l1BlobBaseFeeScalar": "0xdd3ef",
      "l1Fee": "0xe5200ff6",
      "l1GasPrice": "0xeca40dc",
      "l1GasUsed": "0x6f5"
    },
    {
      "status": "0x1",
      "cumulativeGasUsed": "0x4ce005",
      "logs": [
        {
          "address": "0xb1860d529182ac3bc1f51fa2abd56662b7d13f33",
          "topics": [
            "0xdd466e674ea557f56295e2d0218a125ea4b4f0f6f3307b95f85e6110838d6438",
            "0x6ac174c2f8a084fa3c8aa597ce00028dff07c8ff6c4ce6cd8031ed92b792bf9c",
            "0x00000000000000000000000092c79a67fa30d1e42cbb3ca9401af2952369b973",
            "0x000000000000000000000000a815f0f2853cb3b189fe94172f824f03f24989bd"
          ],
          "data": "0x00000000000000000000000000000000000000000000000000000000000013880000000000000000000000000000000000000000000000000000000000000064000000000000000000000000e550a677bb302d43dcc9bd30dc634cfe8369cac000000000000000000000000000000000000000010000000000000000000000000000000000000000000000000000000000000000000000000000000000000000",
          "blockHash": "0xf4b8b66de4db4264ef7a90f94774144d487adcfcd9d3cc3cbdf56114ff3eb154",
          "blockNumber": "0xf6a7aa",
          "transactionHash": "0xf4c5ea9bf3b685c9005c133cd39ca64130e4457d25d2fd30b3b72f74835df185",
          "transactionIndex": "0x10",
          "logIndex": "0x47",
          "removed": false
        },
        {
          "address": "0xc585e0f504613b5fbf874f21af14c65260fb41fa",
          "topics": [
            "0xddf252ad1be2c89b69c2b068fc378daa952ba7f163c4a11628f55a4df523b3ef",
            "0x0000000000000000000000000000000000000000000000000000000000000000",
            "0x000000000000000000000000ac5092a5c7302693a8e39643339109d21dbad723",
            "0x0000000000000000000000000000000000000000000000000000000000000f4e"
          ],
          "data": "0x",
          "blockHash": "0xf4b8b66de4db4264ef7a90f94774144d487adcfcd9d3cc3cbdf56114ff3eb154",
          "blockNumber": "0xf6a7aa",
          "transactionHash": "0xf4c5ea9bf3b685c9005c133cd39ca64130e4457d25d2fd30b3b72f74835df185",
          "transactionIndex": "0x10",
          "logIndex": "0x48",
          "removed": false
        },
        {
          "address": "0xb1860d529182ac3bc1f51fa2abd56662b7d13f33",
          "topics": [
            "0xf208f4912782fd25c7f114ca3723a2d5dd6f3bcc3ac8db5af63baa85f711d5ec",
            "0x6ac174c2f8a084fa3c8aa597ce00028dff07c8ff6c4ce6cd8031ed92b792bf9c",
            "0x000000000000000000000000c585e0f504613b5fbf874f21af14c65260fb41fa"
          ],
          "data": "0xfffffffffffffffffffffffffffffffffffffffffffffffffffffffffffedb0800000000000000000000000000000000000000000000000000000000000124f80000000000000000000000000000000000000000000000000e364b50c0bf8e630000000000000000000000000000000000000000000000000000000000000f4e",
          "blockHash": "0xf4b8b66de4db4264ef7a90f94774144d487adcfcd9d3cc3cbdf56114ff3eb154",
          "blockNumber": "0xf6a7aa",
          "transactionHash": "0xf4c5ea9bf3b685c9005c133cd39ca64130e4457d25d2fd30b3b72f74835df185",
          "transactionIndex": "0x10",
          "logIndex": "0x49",
          "removed": false
        },
        {
          "address": "0x92c79a67fa30d1e42cbb3ca9401af2952369b973",
          "topics": [
            "0xddf252ad1be2c89b69c2b068fc378daa952ba7f163c4a11628f55a4df523b3ef",
            "0x000000000000000000000000ac5092a5c7302693a8e39643339109d21dbad723",
            "0x000000000000000000000000b1860d529182ac3bc1f51fa2abd56662b7d13f33"
          ],
          "data": "0x0000000000000000000000000000000000000000000000000de0b6b3a7640000",
          "blockHash": "0xf4b8b66de4db4264ef7a90f94774144d487adcfcd9d3cc3cbdf56114ff3eb154",
          "blockNumber": "0xf6a7aa",
          "transactionHash": "0xf4c5ea9bf3b685c9005c133cd39ca64130e4457d25d2fd30b3b72f74835df185",
          "transactionIndex": "0x10",
          "logIndex": "0x4a",
          "removed": false
        },
        {
          "address": "0xa815f0f2853cb3b189fe94172f824f03f24989bd",
          "topics": [
            "0xddf252ad1be2c89b69c2b068fc378daa952ba7f163c4a11628f55a4df523b3ef",
            "0x000000000000000000000000ac5092a5c7302693a8e39643339109d21dbad723",
            "0x000000000000000000000000b1860d529182ac3bc1f51fa2abd56662b7d13f33"
          ],
          "data": "0x0000000000000000000000000000000000000000000000000de0b6b3a7640000",
          "blockHash": "0xf4b8b66de4db4264ef7a90f94774144d487adcfcd9d3cc3cbdf56114ff3eb154",
          "blockNumber": "0xf6a7aa",
          "transactionHash": "0xf4c5ea9bf3b685c9005c133cd39ca64130e4457d25d2fd30b3b72f74835df185",
          "transactionIndex": "0x10",
          "logIndex": "0x4b",
          "removed": false
        }
      ],
      "logsBloom": "0x0000000000000000000000000000000000000040000000002000000001000000000000000000000000000000000000000000000000000000000001000000000000040000000000000800040800000008004000000000000000000200008000000000000002000000000000000000080000000021000008000000081000000000000000000100000800000000000000000000000102000000000000000020000000000400000000002000000000000000000000001002000002000000000000000000000200000000000008000000081000010000000004000000000040002c000008000000000000000000000001000404010000010000000000000000000000",
      "type": "0x2",
      "transactionHash": "0xf4c5ea9bf3b685c9005c133cd39ca64130e4457d25d2fd30b3b72f74835df185",
      "transactionIndex": "0x10",
      "blockHash": "0xf4b8b66de4db4264ef7a90f94774144d487adcfcd9d3cc3cbdf56114ff3eb154",
      "blockNumber": "0xf6a7aa",
      "gasUsed": "0x810f2",
      "effectiveGasPrice": "0x18a32",
      "from": "0xac5092a5c7302693a8e39643339109d21dbad723",
      "to": "0xc585e0f504613b5fbf874f21af14c65260fb41fa",
      "contractAddress": null,
      "l1BaseFeeScalar": "0x21f9",
      "l1BlobBaseFee": "0x1",
      "l1BlobBaseFeeScalar": "0xdd3ef",
      "l1Fee": "0x2af103581",
      "l1GasPrice": "0xeca40dc",
      "l1GasUsed": "0x14dd"
    }
  ],
  "libraries": [],
  "pending": [],
  "returns": {},
  "timestamp": 1751665196,
  "chain": 480,
  "commit": "7b69d4f"
}