{
  "transactions": [
    {
      "hash": "0x334705879d03ac845e41e2f80454502054ef214d3c78bc811c0a77f8828ca05f",
      "transactionType": "CALL",
      "contractName": null,
      "contractAddress": "0x18506e1f19e2ac686649b497fbdabc623ebf94d7",
      "function": "approve(address,uint256)",
      "arguments": [
        "0x000000000022D473030F116dDEE9F6B43aC78BA3",
        "115792089237316195423570985008687907853269984665640564039457584007913129639935"
      ],
      "transaction": {
        "from": "0xac5092a5c7302693a8e39643339109d21dbad723",
        "to": "0x18506e1f19e2ac686649b497fbdabc623ebf94d7",
        "gas": "0x10a75",
        "value": "0x0",
        "input": "0x095ea7b3000000000000000000000000000000000022d473030f116ddee9f6b43ac78ba3ffffffffffffffffffffffffffffffffffffffffffffffffffffffffffffffff",
        "nonce": "0x2e",
        "chainId": "0x1e0"
      },
      "additionalContracts": [],
      "isFixedGasLimit": false
    },
    {
      "hash": "0x078a223f655b3259d562ca22e1058c375705cbe8287c8d3f87ddbc3e90fa0e14",
      "transactionType": "CALL",
      "contractName": null,
      "contractAddress": "0x000000000022d473030f116ddee9f6b43ac78ba3",
      "function": "approve(address,address,uint160,uint48)",
      "arguments": [
        "0x18506E1f19e2Ac686649b497FBDAbC623EBF94d7",
        "0xC585E0f504613b5fBf874F21Af14c65260fB41fA",
        "1461501637330902918203684832716283019655932542975",
        "281474976710655"
      ],
      "transaction": {
        "from": "0xac5092a5c7302693a8e39643339109d21dbad723",
        "to": "0x000000000022d473030f116ddee9f6b43ac78ba3",
        "gas": "0x1112d",
        "value": "0x0",
        "input": "0x87517c4500000000000000000000000018506e1f19e2ac686649b497fbdabc623ebf94d7000000000000000000000000c585e0f504613b5fbf874f21af14c65260fb41fa000000000000000000000000ffffffffffffffffffffffffffffffffffffffff0000000000000000000000000000000000000000000000000000ffffffffffff",
        "nonce": "0x2f",
        "chainId": "0x1e0"
      },
      "additionalContracts": [],
      "isFixedGasLimit": false
    },
    {
      "hash": "0x103439db7b2f4ca239461f537fc141ead8d67e96b4c13da15181729584271b72",
      "transactionType": "CALL",
      "contractName": null,
      "contractAddress": "0xdaa311ed0a8520ac2b8855c20ca632c9cfa2ba72",
      "function": "approve(address,uint256)",
      "arguments": [
        "0x000000000022D473030F116dDEE9F6B43aC78BA3",
        "115792089237316195423570985008687907853269984665640564039457584007913129639935"
      ],
      "transaction": {
        "from": "0xac5092a5c7302693a8e39643339109d21dbad723",
        "to": "0xdaa311ed0a8520ac2b8855c20ca632c9cfa2ba72",
        "gas": "0x10a75",
        "value": "0x0",
        "input": "0x095ea7b3000000000000000000000000000000000022d473030f116ddee9f6b43ac78ba3ffffffffffffffffffffffffffffffffffffffffffffffffffffffffffffffff",
        "nonce": "0x30",
        "chainId": "0x1e0"
      },
      "additionalContracts": [],
      "isFixedGasLimit": false
    },
    {
      "hash": "0xbe77be3269484ce2794c4a6e72b0237d87cf98c24929608cbf633b25a6f0b865",
      "transactionType": "CALL",
      "contractName": null,
      "contractAddress": "0x000000000022d473030f116ddee9f6b43ac78ba3",
      "function": "approve(address,address,uint160,uint48)",
      "arguments": [
        "0xDAA311eD0a8520Ac2b8855c20Ca632c9Cfa2bA72",
        "0xC585E0f504613b5fBf874F21Af14c65260fB41fA",
        "1461501637330902918203684832716283019655932542975",
        "281474976710655"
      ],
      "transaction": {
        "from": "0xac5092a5c7302693a8e39643339109d21dbad723",
        "to": "0x000000000022d473030f116ddee9f6b43ac78ba3",
        "gas": "0x1112d",
        "value": "0x0",
        "input": "0x87517c45000000000000000000000000daa311ed0a8520ac2b8855c20ca632c9cfa2ba72000000000000000000000000c585e0f504613b5fbf874f21af14c65260fb41fa000000000000000000000000ffffffffffffffffffffffffffffffffffffffff0000000000000000000000000000000000000000000000000000ffffffffffff",
        "nonce": "0x31",
        "chainId": "0x1e0"
      },
      "additionalContracts": [],
      "isFixedGasLimit": false
    },
    {
      "hash": "0xbc69ef3d536194ec75fc9a83ee0131aaefcc129859f1daa2def6af2ba63fb97b",
      "transactionType": "CALL",
      "contractName": null,
      "contractAddress": "0xc585e0f504613b5fbf874f21af14c65260fb41fa",
      "function": "multicall(bytes[])",
      "arguments": [
        "[0xf702040500000000000000000000000018506e1f19e2ac686649b497fbdabc623ebf94d7000000000000000000000000daa311ed0a8520ac2b8855c20ca632c9cfa2ba720000000000000000000000000000000000000000000000000000000000001388000000000000000000000000000000000000000000000000000000000000006400000000000000000000000059d6637eccab06e0efbc176ab2c292ab66ec5040000000000000000000000000000000000000000100000000000000000000000000000000000000000000000000000000000000000000000000000000000000e00000000000000000000000000000000000000000000000000000000000000000, 0xdd46508f0000000000000000000000000000000000000000000000000000000000000040000000000000000000000000000000000000000000000000000000006869e8910000000000000000000000000000000000000000000000000000000000000400000000000000000000000000000000000000000000000000000000000000004000000000000000000000000000000000000000000000000000000000000000800000000000000000000000000000000000000000000000000000000000000004020d14140000000000000000000000000000000000000000000000000000000000000000000000000000000000000000000000000000000000000000000000040000000000000000000000000000000000000000000000000000000000000080000000000000000000000000000000000000000000000000000000000000024000000000000000000000000000000000000000000000000000000000000002a0000000000000000000000000000000000000000000000000000000000000030000000000000000000000000000000000000000000000000000000000000001a000000000000000000000000018506e1f19e2ac686649b497fbdabc623ebf94d7000000000000000000000000daa311ed0a8520ac2b8855c20ca632c9cfa2ba720000000000000000000000000000000000000000000000000000000000001388000000000000000000000000000000000000000000000000000000000000006400000000000000000000000059d6637eccab06e0efbc176ab2c292ab66ec5040fffffffffffffffffffffffffffffffffffffffffffffffffffffffffffedb0800000000000000000000000000000000000000000000000000000000000124f80000000000000000000000000000000000000000000000008e1ef127877b8fdf0000000000000000000000000000000000000000000000008ac7230489e800010000000000000000000000000000000000000000000000008ac7230489e80001000000000000000000000000ac5092a5c7302693a8e39643339109d21dbad72300000000000000000000000000000000000000000000000000000000000001800000000000000000000000000000000000000000000000000000000000000000000000000000000000000000000000000000000000000000000000000000004000000000000000000000000018506e1f19e2ac686649b497fbdabc623ebf94d7000000000000000000000000daa311ed0a8520ac2b8855c20ca632c9cfa2ba72000000000000000000000000000000000000000000000000000000000000004000000000000000000000000018506e1f19e2ac686649b497fbdabc623ebf94d7000000000000000000000000ac5092a5c7302693a8e39643339109d21dbad7230000000000000000000000000000000000000000000000000000000000000040000000000000000000000000daa311ed0a8520ac2b8855c20ca632c9cfa2ba72000000000000000000000000ac5092a5c7302693a8e39643339109d21dbad723]"
      ],
      "transaction": {
        "from": "0xac5092a5c7302693a8e39643339109d21dbad723",
        "to": "0xc585e0f504613b5fbf874f21af14c65260fb41fa",
        "gas": "0xaf09b",
        "value": "0x0",
        "input": "0xac9650d800000000000000000000000000000000000000000000000000000000000000200000000000000000000000000000000000000000000000000000000000000002000000000000000000000000000000000000000000000000000000000000004000000000000000000000000000000000000000000000000000000000000001800000000000000000000000000000000000000000000000000000000000000104f702040500000000000000000000000018506e1f19e2ac686649b497fbdabc623ebf94d7000000000000000000000000daa311ed0a8520ac2b8855c20ca632c9cfa2ba720000000000000000000000000000000000000000000000000000000000001388000000000000000000000000000000000000000000000000000000000000006400000000000000000000000059d6637eccab06e0efbc176ab2c292ab66ec5040000000000000000000000000000000000000000100000000000000000000000000000000000000000000000000000000000000000000000000000000000000e00000000000000000000000000000000000000000000000000000000000000000000000000000000000000000000000000000000000000000000000000000000000000000000000000000000000000000000000000000000000000464dd46508f0000000000000000000000000000000000000000000000000000000000000040000000000000000000000000000000000000000000000000000000006869e8910000000000000000000000000000000000000000000000000000000000000400000000000000000000000000000000000000000000000000000000000000004000000000000000000000000000000000000000000000000000000000000000800000000000000000000000000000000000000000000000000000000000000004020d14140000000000000000000000000000000000000000000000000000000000000000000000000000000000000000000000000000000000000000000000040000000000000000000000000000000000000000000000000000000000000080000000000000000000000000000000000000000000000000000000000000024000000000000000000000000000000000000000000000000000000000000002a0000000000000000000000000000000000000000000000000000000000000030000000000000000000000000000000000000000000000000000000000000001a000000000000000000000000018506e1f19e2ac686649b497fbdabc623ebf94d7000000000000000000000000daa311ed0a8520ac2b8855c20ca632c9cfa2ba720000000000000000000000000000000000000000000000000000000000001388000000000000000000000000000000000000000000000000000000000000006400000000000000000000000059d6637eccab06e0efbc176ab2c292ab66ec5040fffffffffffffffffffffffffffffffffffffffffffffffffffffffffffedb0800000000000000000000000000000000000000000000000000000000000124f80000000000000000000000000000000000000000000000008e1ef127877b8fdf0000000000000000000000000000000000000000000000008ac7230489e800010000000000000000000000000000000000000000000000008ac7230489e80001000000000000000000000000ac5092a5c7302693a8e39643339109d21dbad72300000000000000000000000000000000000000000000000000000000000001800000000000000000000000000000000000000000000000000000000000000000000000000000000000000000000000000000000000000000000000000000004000000000000000000000000018506e1f19e2ac686649b497fbdabc623ebf94d7000000000000000000000000daa311ed0a8520ac2b8855c20ca632c9cfa2ba72000000000000000000000000000000000000000000000000000000000000004000000000000000000000000018506e1f19e2ac686649b497fbdabc623ebf94d7000000000000000000000000ac5092a5c7302693a8e39643339109d21dbad7230000000000000000000000000000000000000000000000000000000000000040000000000000000000000000daa311ed0a8520ac2b8855c20ca632c9cfa2ba72000000000000000000000000ac5092a5c7302693a8e39643339109d21dbad72300000000000000000000000000000000000000000000000000000000",
        "nonce": "0x32",
        "chainId": "0x1e0"
      },
      "additionalContracts": [],
      "isFixedGasLimit": false
    }
  ],
  "receipts": [
    {
      "status": "0x1",
      "cumulativeGasUsed": "0x1cc4d4",
      "logs": [
        {
          "address": "0x18506e1f19e2ac686649b497fbdabc623ebf94d7",
          "topics": [
            "0x8c5be1e5ebec7d5bd14f71427d1e84f3dd0314c0f7b2291e5b200ac8c7c3b925",
            "0x000000000000000000000000ac5092a5c7302693a8e39643339109d21dbad723",
            "0x000000000000000000000000000000000022d473030f116ddee9f6b43ac78ba3"
          ],
          "data": "0xffffffffffffffffffffffffffffffffffffffffffffffffffffffffffffffff",
          "blockHash": "0x647b376fbd3f6e10e00931d6c9e53c7d691d9d7bd0795ce92d516c04aa50a0b4",
          "blockNumber": "0xf76fdb",
          "transactionHash": "0x334705879d03ac845e41e2f80454502054ef214d3c78bc811c0a77f8828ca05f",
          "transactionIndex": "0x6",
          "logIndex": "0xf",
          "removed": false
        }
      ],
      "logsBloom": "0x00000000000000000000000000000000000000000000000000000000000000000000000000000000000000000000000000000000800000000000000000200000000000000000000000004000000000000000000000000800000000000000000000000100000000000000000000000000000000200000000000000000000000000000000000000000000000000000000000000000000000000000010000000000020000000000000020000000000000000000000000020000000000000000000000000000000000000000000000000000000000000000000000000000000000000010000000000000000000000000000000000000000000000000000000000002",
      "type": "0x2",
      "transactionHash": "0x334705879d03ac845e41e2f80454502054ef214d3c78bc811c0a77f8828ca05f",
      "transactionIndex": "0x6",
      "blockHash": "0x647b376fbd3f6e10e00931d6c9e53c7d691d9d7bd0795ce92d516c04aa50a0b4",
      "blockNumber": "0xf76fdb",
      "gasUsed": "0xb632",
      "effectiveGasPrice": "0x18d05",
      "from": "0xac5092a5c7302693a8e39643339109d21dbad723",
      "to": "0x18506e1f19e2ac686649b497fbdabc623ebf94d7",
      "contractAddress": null,
      "l1BaseFeeScalar": "0x21f9",
      "l1BlobBaseFee": "0x1",
      "l1BlobBaseFeeScalar": "0xdd3ef",
      "l1Fee": "0xd077e0af",
      "l1GasPrice": "0xefb38be",
      "l1GasUsed": "0x640"
    },
    {
      "status": "0x1",
      "cumulativeGasUsed": "0x1d7f9e",
      "logs": [
        {
          "address": "0x000000000022d473030f116ddee9f6b43ac78ba3",
          "topics": [
            "0xda9fa7c1b00402c17d0161b249b1ab8bbec047c5a52207b9c112deffd817036b",
            "0x000000000000000000000000ac5092a5c7302693a8e39643339109d21dbad723",
            "0x00000000000000000000000018506e1f19e2ac686649b497fbdabc623ebf94d7",
            "0x000000000000000000000000c585e0f504613b5fbf874f21af14c65260fb41fa"
          ],
          "data": "0x000000000000000000000000ffffffffffffffffffffffffffffffffffffffff0000000000000000000000000000000000000000000000000000ffffffffffff",
          "blockHash": "0x647b376fbd3f6e10e00931d6c9e53c7d691d9d7bd0795ce92d516c04aa50a0b4",
          "blockNumber": "0xf76fdb",
          "transactionHash": "0x078a223f655b3259d562ca22e1058c375705cbe8287c8d3f87ddbc3e90fa0e14",
          "transactionIndex": "0x7",
          "logIndex": "0x10",
          "removed": false
        }
      ],
      "logsBloom": "0x00010000000000000000000000000000000000000000000200000000000000000000000000000000000000000000000000000000000000000000010000080000000000000000000000000000000000000000000000000000000000000000000000000000000000000000000000000000000000200000000000000000000000000020000000000000000000000000000000000000000000000002000000000000000000000000000020000000000000000000000010020000000000080000000000000000200000000000000000000000000000000000000040000000000000000000000000000000000000000000000400000000000000000000000000000400",
      "type": "0x2",
      "transactionHash": "0x078a223f655b3259d562ca22e1058c375705cbe8287c8d3f87ddbc3e90fa0e14",
      "transactionIndex": "0x7",
      "blockHash": "0x647b376fbd3f6e10e00931d6c9e53c7d691d9d7bd0795ce92d516c04aa50a0b4",
      "blockNumber": "0xf76fdb",
      "gasUsed": "0xbaca",
      "effectiveGasPrice": "0x18d05",
      "from": "0xac5092a5c7302693a8e39643339109d21dbad723",
      "to": "0x000000000022d473030f116ddee9f6b43ac78ba3",
      "contractAddress": null,
      "l1BaseFeeScalar": "0x21f9",
      "l1BlobBaseFee": "0x1",
      "l1BlobBaseFeeScalar": "0xdd3ef",
      "l1Fee": "0xe816abf3",
      "l1GasPrice": "0xefb38be",
      "l1GasUsed": "0x6f5"
    },
    {
      "status": "0x1",
      "cumulativeGasUsed": "0x1e35d0",
      "logs": [
        {
          "address": "0xdaa311ed0a8520ac2b8855c20ca632c9cfa2ba72",
          "topics": [
            "0x8c5be1e5ebec7d5bd14f71427d1e84f3dd0314c0f7b2291e5b200ac8c7c3b925",
            "0x000000000000000000000000ac5092a5c7302693a8e39643339109d21dbad723",
            "0x000000000000000000000000000000000022d473030f116ddee9f6b43ac78ba3"
          ],
          "data": "0xffffffffffffffffffffffffffffffffffffffffffffffffffffffffffffffff",
          "blockHash": "0x647b376fbd3f6e10e00931d6c9e53c7d691d9d7bd0795ce92d516c04aa50a0b4",
          "blockNumber": "0xf76fdb",
          "transactionHash": "0x103439db7b2f4ca239461f537fc141ead8d67e96b4c13da15181729584271b72",
          "transactionIndex": "0x8",
          "logIndex": "0x11",
          "removed": false
        }
      ],
      "logsBloom": "0x00000000000000000000000000000000000000000000000000000000000000000000000000000000000000000000000000080000800800000000000000200000000000000000000000004000000000000000000000000800000000000000000000000000000000000000000000000000000000200000000000000000000000000000000000004000000000000000000000000000000000000000000000000000020000000000000020000000000000000000000000020000000000000000000000000000000000000000000000000000000000000000000000000000000000000010000000000000000000000000000000000000000000000000000000000000",
      "type": "0x2",
      "transactionHash": "0x103439db7b2f4ca239461f537fc141ead8d67e96b4c13da15181729584271b72",
      "transactionIndex": "0x8",
      "blockHash": "0x647b376fbd3f6e10e00931d6c9e53c7d691d9d7bd0795ce92d516c04aa50a0b4",
      "blockNumber": "0xf76fdb",
      "gasUsed": "0xb632",
      "effectiveGasPrice": "0x18d05",
      "from": "0xac5092a5c7302693a8e39643339109d21dbad723",
      "to": "0xdaa311ed0a8520ac2b8855c20ca632c9cfa2ba72",
      "contractAddress": null,
      "l1BaseFeeScalar": "0x21f9",
      "l1BlobBaseFee": "0x1",
      "l1BlobBaseFeeScalar": "0xdd3ef",
      "l1Fee": "0xd077e0af",
      "l1GasPrice": "0xefb38be",
      "l1GasUsed": "0x640"
    },
    {
      "status": "0x1",
      "cumulativeGasUsed": "0x1ef09a",
      "logs": [
        {
          "address": "0x000000000022d473030f116ddee9f6b43ac78ba3",
          "topics": [
            "0xda9fa7c1b00402c17d0161b249b1ab8bbec047c5a52207b9c112deffd817036b",
            "0x000000000000000000000000ac5092a5c7302693a8e39643339109d21dbad723",
            "0x000000000000000000000000daa311ed0a8520ac2b8855c20ca632c9cfa2ba72",
            "0x000000000000000000000000c585e0f504613b5fbf874f21af14c65260fb41fa"
          ],
          "data": "0x000000000000000000000000ffffffffffffffffffffffffffffffffffffffff0000000000000000000000000000000000000000000000000000ffffffffffff",
          "blockHash": "0x647b376fbd3f6e10e00931d6c9e53c7d691d9d7bd0795ce92d516c04aa50a0b4",
          "blockNumber": "0xf76fdb",
          "transactionHash": "0xbe77be3269484ce2794c4a6e72b0237d87cf98c24929608cbf633b25a6f0b865",
          "transactionIndex": "0x9",
          "logIndex": "0x12",
          "removed": false
        }
      ],
      "logsBloom": "0x00010000000000000000000000000002000000000000000000000000000000000000000000000000000000000000000000000000000000000000010000080000000000000000000000000000000000000000000000000000000000000000000000000000000000000000000000000000000000200000000000000000000000000020000000000000000000000000000000000000000000000000000000000000000000000000000020000000002000000000000010020000000000080000000000000000000000000000000000000000000000000000000040000000000000000001000000000000000000000000000400000000000000000000000000000400",
      "type": "0x2",
      "transactionHash": "0xbe77be3269484ce2794c4a6e72b0237d87cf98c24929608cbf633b25a6f0b865",
      "transactionIndex": "0x9",
      "blockHash": "0x647b376fbd3f6e10e00931d6c9e53c7d691d9d7bd0795ce92d516c04aa50a0b4",
      "blockNumber": "0xf76fdb",
      "gasUsed": "0xbaca",
      "effectiveGasPrice": "0x18d05",
      "from": "0xac5092a5c7302693a8e39643339109d21dbad723",
      "to": "0x000000000022d473030f116ddee9f6b43ac78ba3",
      "contractAddress": null,
      "l1BaseFeeScalar": "0x21f9",
      "l1BlobBaseFee": "0x1",
      "l1BlobBaseFeeScalar": "0xdd3ef",
      "l1Fee": "0xe816abf3",
      "l1GasPrice": "0xefb38be",
      "l1GasUsed": "0x6f5"
    },
    {
      "status": "0x1",
      "cumulativeGasUsed": "0x2bfa80",
      "logs": [
        {
          "address": "0xb1860d529182ac3bc1f51fa2abd56662b7d13f33",
          "topics": [
            "0xdd466e674ea557f56295e2d0218a125ea4b4f0f6f3307b95f85e6110838d6438",
            "0x35cc2d471453137dd6c7f1a14f085224b78d30daf42cfbab040b9b0784d52499",
            "0x00000000000000000000000018506e1f19e2ac686649b497fbdabc623ebf94d7",
            "0x000000000000000000000000daa311ed0a8520ac2b8855c20ca632c9cfa2ba72"
          ],
          "data": "0x0000000000000000000000000000000000000000000000000000000000001388000000000000000000000000000000000000000000000000000000000000006400000000000000000000000059d6637eccab06e0efbc176ab2c292ab66ec504000000000000000000000000000000000000000010000000000000000000000000000000000000000000000000000000000000000000000000000000000000000",
          "blockHash": "0x647b376fbd3f6e10e00931d6c9e53c7d691d9d7bd0795ce92d516c04aa50a0b4",
          "blockNumber": "0xf76fdb",
          "transactionHash": "0xbc69ef3d536194ec75fc9a83ee0131aaefcc129859f1daa2def6af2ba63fb97b",
          "transactionIndex": "0xb",
          "logIndex": "0x14",
          "removed": false
        },
        {
          "address": "0xc585e0f504613b5fbf874f21af14c65260fb41fa",
          "topics": [
            "0xddf252ad1be2c89b69c2b068fc378daa952ba7f163c4a11628f55a4df523b3ef",
            "0x0000000000000000000000000000000000000000000000000000000000000000",
            "0x000000000000000000000000ac5092a5c7302693a8e39643339109d21dbad723",
            "0x0000000000000000000000000000000000000000000000000000000000000f76"
          ],
          "data": "0x",
          "blockHash": "0x647b376fbd3f6e10e00931d6c9e53c7d691d9d7bd0795ce92d516c04aa50a0b4",
          "blockNumber": "0xf76fdb",
          "transactionHash": "0xbc69ef3d536194ec75fc9a83ee0131aaefcc129859f1daa2def6af2ba63fb97b",
          "transactionIndex": "0xb",
          "logIndex": "0x15",
          "removed": false
        },
        {
          "address": "0xb1860d529182ac3bc1f51fa2abd56662b7d13f33",
          "topics": [
            "0xf208f4912782fd25c7f114ca3723a2d5dd6f3bcc3ac8db5af63baa85f711d5ec",
            "0x35cc2d471453137dd6c7f1a14f085224b78d30daf42cfbab040b9b0784d52499",
            "0x000000000000000000000000c585e0f504613b5fbf874f21af14c65260fb41fa"
          ],
          "data": "0xfffffffffffffffffffffffffffffffffffffffffffffffffffffffffffedb0800000000000000000000000000000000000000000000000000000000000124f80000000000000000000000000000000000000000000000008e1ef127877b8fdf0000000000000000000000000000000000000000000000000000000000000f76",
          "blockHash": "0x647b376fbd3f6e10e00931d6c9e53c7d691d9d7bd0795ce92d516c04aa50a0b4",
          "blockNumber": "0xf76fdb",
          "transactionHash": "0xbc69ef3d536194ec75fc9a83ee0131aaefcc129859f1daa2def6af2ba63fb97b",
          "transactionIndex": "0xb",
          "logIndex": "0x16",
          "removed": false
        },
        {
          "address": "0x18506e1f19e2ac686649b497fbdabc623ebf94d7",
          "topics": [
            "0xddf252ad1be2c89b69c2b068fc378daa952ba7f163c4a11628f55a4df523b3ef",
            "0x000000000000000000000000ac5092a5c7302693a8e39643339109d21dbad723",
            "0x000000000000000000000000b1860d529182ac3bc1f51fa2abd56662b7d13f33"
          ],
          "data": "0x0000000000000000000000000000000000000000000000008ac7230489e80000",
          "blockHash": "0x647b376fbd3f6e10e00931d6c9e53c7d691d9d7bd0795ce92d516c04aa50a0b4",
          "blockNumber": "0xf76fdb",
          "transactionHash": "0xbc69ef3d536194ec75fc9a83ee0131aaefcc129859f1daa2def6af2ba63fb97b",
          "transactionIndex": "0xb",
          "logIndex": "0x17",
          "removed": false
        },
        {
          "address": "0xdaa311ed0a8520ac2b8855c20ca632c9cfa2ba72",
          "topics": [
            "0xddf252ad1be2c89b69c2b068fc378daa952ba7f163c4a11628f55a4df523b3ef",
            "0x000000000000000000000000ac5092a5c7302693a8e39643339109d21dbad723",
            "0x000000000000000000000000b1860d529182ac3bc1f51fa2abd56662b7d13f33"
          ],
          "data": "0x0000000000000000000000000000000000000000000000008ac7230489e80000",
          "blockHash": "0x647b376fbd3f6e10e00931d6c9e53c7d691d9d7bd0795ce92d516c04aa50a0b4",
          "blockNumber": "0xf76fdb",
          "transactionHash": "0xbc69ef3d536194ec75fc9a83ee0131aaefcc129859f1daa2def6af2ba63fb97b",
          "transactionIndex": "0xb",
          "logIndex": "0x18",
          "removed": false
        }
      ],
      "logsBloom": "0x00000000000000000000000000000002000000400000100220000000000000000000000000000000000000000000000000080000000800000000010000000000000000000000000000000008000020000040000000000000000000000000000000000100020020000000000000000800000000200000000000000811000000000000000001004008000000000000000000000001000010000002010000200000000004000000000020000000002000000000000010020000020000000000000000000002200000000000000000000000004000000000000000000000400020000009000000000000000000000000000404010000010000000000000000000002",
      "type": "0x2",
      "transactionHash": "0xbc69ef3d536194ec75fc9a83ee0131aaefcc129859f1daa2def6af2ba63fb97b",
      "transactionIndex": "0xb",
      "blockHash": "0x647b376fbd3f6e10e00931d6c9e53c7d691d9d7bd0795ce92d516c04aa50a0b4",
      "blockNumber": "0xf76fdb",
      "gasUsed": "0x77af2",
      "effectiveGasPrice": "0x18d05",
      "from": "0xac5092a5c7302693a8e39643339109d21dbad723",
      "to": "0xc585e0f504613b5fbf874f21af14c65260fb41fa",
      "contractAddress": null,
      "l1BaseFeeScalar": "0x21f9",
      "l1BlobBaseFee": "0x1",
      "l1BlobBaseFeeScalar": "0xdd3ef",
      "l1Fee": "0x2bb6fd8e3",
      "l1GasPrice": "0xefb38be",
      "l1GasUsed": "0x14f8"
    }
  ],
  "libraries": [],
  "pending": [],
  "returns": {},
  "timestamp": 1751767694,
  "chain": 480,
  "commit": "cf95ec0"
}