{
  "transactions": [
    {
      "hash": "0xadc43a95f715de1fe9a738f5f966161be59678605c58210ddc4ab7a3feea3141",
      "transactionType": "CALL",
      "contractName": "MockERC20",
      "contractAddress": "0x76f14c98d2b3d4d7e09486ca09e5be1b4e19182a",
      "function": "approve(address,uint256)",
      "arguments": [
        "0x000000000022D473030F116dDEE9F6B43aC78BA3",
        "115792089237316195423570985008687907853269984665640564039457584007913129639935"
      ],
      "transaction": {
        "from": "0xac5092a5c7302693a8e39643339109d21dbad723",
        "to": "0x76f14c98d2b3d4d7e09486ca09e5be1b4e19182a",
        "gas": "0x9048",
        "value": "0x0",
        "input": "0x095ea7b3000000000000000000000000000000000022d473030f116ddee9f6b43ac78ba3ffffffffffffffffffffffffffffffffffffffffffffffffffffffffffffffff",
        "nonce": "0x49",
        "chainId": "0x1e0"
      },
      "additionalContracts": [],
      "isFixedGasLimit": false
    },
    {
      "hash": "0xd973dc81ee54b6746af6df39df2d94525c18d68c129483f25f7d1a372657f21e",
      "transactionType": "CALL",
      "contractName": null,
      "contractAddress": "0x000000000022d473030f116ddee9f6b43ac78ba3",
      "function": "approve(address,address,uint160,uint48)",
      "arguments": [
        "0x76f14c98d2B3d4D7e09486Ca09e5BE1B4E19182a",
        "0xC585E0f504613b5fBf874F21Af14c65260fB41fA",
        "1461501637330902918203684832716283019655932542975",
        "281474976710655"
      ],
      "transaction": {
        "from": "0xac5092a5c7302693a8e39643339109d21dbad723",
        "to": "0x000000000022d473030f116ddee9f6b43ac78ba3",
        "gas": "0x96a0",
        "value": "0x0",
        "input": "0x87517c4500000000000000000000000076f14c98d2b3d4d7e09486ca09e5be1b4e19182a000000000000000000000000c585e0f504613b5fbf874f21af14c65260fb41fa000000000000000000000000ffffffffffffffffffffffffffffffffffffffff0000000000000000000000000000000000000000000000000000ffffffffffff",
        "nonce": "0x4a",
        "chainId": "0x1e0"
      },
      "additionalContracts": [],
      "isFixedGasLimit": false
    },
    {
      "hash": "0x7a5a8f568ff4b18fb924c8a01f1effca2b3ffeaa0c6af848fc0b6b9734bcd603",
      "transactionType": "CALL",
      "contractName": "MockERC20",
      "contractAddress": "0xbf784ac432d1ca21135b3ee603e11ed990d77ea4",
      "function": "approve(address,uint256)",
      "arguments": [
        "0x000000000022D473030F116dDEE9F6B43aC78BA3",
        "115792089237316195423570985008687907853269984665640564039457584007913129639935"
      ],
      "transaction": {
        "from": "0xac5092a5c7302693a8e39643339109d21dbad723",
        "to": "0xbf784ac432d1ca21135b3ee603e11ed990d77ea4",
        "gas": "0x9048",
        "value": "0x0",
        "input": "0x095ea7b3000000000000000000000000000000000022d473030f116ddee9f6b43ac78ba3ffffffffffffffffffffffffffffffffffffffffffffffffffffffffffffffff",
        "nonce": "0x4b",
        "chainId": "0x1e0"
      },
      "additionalContracts": [],
      "isFixedGasLimit": false
    },
    {
      "hash": "0x207f741a4f277e26a43a92d2241e061145f75cb1cb4b17db1eb1c4f4a2e3e8b6",
      "transactionType": "CALL",
      "contractName": null,
      "contractAddress": "0x000000000022d473030f116ddee9f6b43ac78ba3",
      "function": "approve(address,address,uint160,uint48)",
      "arguments": [
        "0xbF784Ac432D1CA21135B3ee603E11ED990D77EA4",
        "0xC585E0f504613b5fBf874F21Af14c65260fB41fA",
        "1461501637330902918203684832716283019655932542975",
        "281474976710655"
      ],
      "transaction": {
        "from": "0xac5092a5c7302693a8e39643339109d21dbad723",
        "to": "0x000000000022d473030f116ddee9f6b43ac78ba3",
        "gas": "0x96a0",
        "value": "0x0",
        "input": "0x87517c45000000000000000000000000bf784ac432d1ca21135b3ee603e11ed990d77ea4000000000000000000000000c585e0f504613b5fbf874f21af14c65260fb41fa000000000000000000000000ffffffffffffffffffffffffffffffffffffffff0000000000000000000000000000000000000000000000000000ffffffffffff",
        "nonce": "0x4c",
        "chainId": "0x1e0"
      },
      "additionalContracts": [],
      "isFixedGasLimit": false
    },
    {
      "hash": "0x1503868ac3a2f17dd8131d875fc08e1f94b698b8d3a6273cdaa7dc25a47731bb",
      "transactionType": "CALL",
      "contractName": null,
      "contractAddress": "0xc585e0f504613b5fbf874f21af14c65260fb41fa",
      "function": "multicall(bytes[])",
      "arguments": [
        "[0xf702040500000000000000000000000076f14c98d2b3d4d7e09486ca09e5be1b4e19182a000000000000000000000000bf784ac432d1ca21135b3ee603e11ed990d77ea400000000000000000000000000000000000000000000000000000000000013880000000000000000000000000000000000000000000000000000000000000064000000000000000000000000bea696425cb0e2d7c4d7ba15e6ed3eb6968f5040000000000000000000000000000000000000000100000000000000000000000000000000000000000000000000000000000000000000000000000000000000e00000000000000000000000000000000000000000000000000000000000000000, 0xdd46508f0000000000000000000000000000000000000000000000000000000000000040000000000000000000000000000000000000000000000000000000006869f7db0000000000000000000000000000000000000000000000000000000000000400000000000000000000000000000000000000000000000000000000000000004000000000000000000000000000000000000000000000000000000000000000800000000000000000000000000000000000000000000000000000000000000004020d14140000000000000000000000000000000000000000000000000000000000000000000000000000000000000000000000000000000000000000000000040000000000000000000000000000000000000000000000000000000000000080000000000000000000000000000000000000000000000000000000000000024000000000000000000000000000000000000000000000000000000000000002a0000000000000000000000000000000000000000000000000000000000000030000000000000000000000000000000000000000000000000000000000000001a000000000000000000000000076f14c98d2b3d4d7e09486ca09e5be1b4e19182a000000000000000000000000bf784ac432d1ca21135b3ee603e11ed990d77ea400000000000000000000000000000000000000000000000000000000000013880000000000000000000000000000000000000000000000000000000000000064000000000000000000000000bea696425cb0e2d7c4d7ba15e6ed3eb6968f5040fffffffffffffffffffffffffffffffffffffffffffffffffffffffffffedb0800000000000000000000000000000000000000000000000000000000000124f8000000000000000000000000000000000000000000000002c69ab5c5a569cf5b000000000000000000000000000000000000000000000002b5e3af16b1880001000000000000000000000000000000000000000000000002b5e3af16b1880001000000000000000000000000ac5092a5c7302693a8e39643339109d21dbad72300000000000000000000000000000000000000000000000000000000000001800000000000000000000000000000000000000000000000000000000000000000000000000000000000000000000000000000000000000000000000000000004000000000000000000000000076f14c98d2b3d4d7e09486ca09e5be1b4e19182a000000000000000000000000bf784ac432d1ca21135b3ee603e11ed990d77ea4000000000000000000000000000000000000000000000000000000000000004000000000000000000000000076f14c98d2b3d4d7e09486ca09e5be1b4e19182a000000000000000000000000ac5092a5c7302693a8e39643339109d21dbad7230000000000000000000000000000000000000000000000000000000000000040000000000000000000000000bf784ac432d1ca21135b3ee603e11ed990d77ea4000000000000000000000000ac5092a5c7302693a8e39643339109d21dbad723]"
      ],
      "transaction": {
        "from": "0xac5092a5c7302693a8e39643339109d21dbad723",
        "to": "0xc585e0f504613b5fbf874f21af14c65260fb41fa",
        "gas": "0x99cae",
        "value": "0x0",
        "input": "0xac9650d800000000000000000000000000000000000000000000000000000000000000200000000000000000000000000000000000000000000000000000000000000002000000000000000000000000000000000000000000000000000000000000004000000000000000000000000000000000000000000000000000000000000001800000000000000000000000000000000000000000000000000000000000000104f702040500000000000000000000000076f14c98d2b3d4d7e09486ca09e5be1b4e19182a000000000000000000000000bf784ac432d1ca21135b3ee603e11ed990d77ea400000000000000000000000000000000000000000000000000000000000013880000000000000000000000000000000000000000000000000000000000000064000000000000000000000000bea696425cb0e2d7c4d7ba15e6ed3eb6968f5040000000000000000000000000000000000000000100000000000000000000000000000000000000000000000000000000000000000000000000000000000000e00000000000000000000000000000000000000000000000000000000000000000000000000000000000000000000000000000000000000000000000000000000000000000000000000000000000000000000000000000000000000464dd46508f0000000000000000000000000000000000000000000000000000000000000040000000000000000000000000000000000000000000000000000000006869f7db0000000000000000000000000000000000000000000000000000000000000400000000000000000000000000000000000000000000000000000000000000004000000000000000000000000000000000000000000000000000000000000000800000000000000000000000000000000000000000000000000000000000000004020d14140000000000000000000000000000000000000000000000000000000000000000000000000000000000000000000000000000000000000000000000040000000000000000000000000000000000000000000000000000000000000080000000000000000000000000000000000000000000000000000000000000024000000000000000000000000000000000000000000000000000000000000002a0000000000000000000000000000000000000000000000000000000000000030000000000000000000000000000000000000000000000000000000000000001a000000000000000000000000076f14c98d2b3d4d7e09486ca09e5be1b4e19182a000000000000000000000000bf784ac432d1ca21135b3ee603e11ed990d77ea400000000000000000000000000000000000000000000000000000000000013880000000000000000000000000000000000000000000000000000000000000064000000000000000000000000bea696425cb0e2d7c4d7ba15e6ed3eb6968f5040fffffffffffffffffffffffffffffffffffffffffffffffffffffffffffedb0800000000000000000000000000000000000000000000000000000000000124f8000000000000000000000000000000000000000000000002c69ab5c5a569cf5b000000000000000000000000000000000000000000000002b5e3af16b1880001000000000000000000000000000000000000000000000002b5e3af16b1880001000000000000000000000000ac5092a5c7302693a8e39643339109d21dbad72300000000000000000000000000000000000000000000000000000000000001800000000000000000000000000000000000000000000000000000000000000000000000000000000000000000000000000000000000000000000000000000004000000000000000000000000076f14c98d2b3d4d7e09486ca09e5be1b4e19182a000000000000000000000000bf784ac432d1ca21135b3ee603e11ed990d77ea4000000000000000000000000000000000000000000000000000000000000004000000000000000000000000076f14c98d2b3d4d7e09486ca09e5be1b4e19182a000000000000000000000000ac5092a5c7302693a8e39643339109d21dbad7230000000000000000000000000000000000000000000000000000000000000040000000000000000000000000bf784ac432d1ca21135b3ee603e11ed990d77ea4000000000000000000000000ac5092a5c7302693a8e39643339109d21dbad72300000000000000000000000000000000000000000000000000000000",
        "nonce": "0x4d",
        "chainId": "0x1e0"
      },
      "additionalContracts": [],
      "isFixedGasLimit": false
    }
  ],
  "receipts": [
    {
      "status": "0x1",
      "cumulativeGasUsed": "0x1060121",
      "logs": [
        {
          "address": "0x76f14c98d2b3d4d7e09486ca09e5be1b4e19182a",
          "topics": [
            "0x8c5be1e5ebec7d5bd14f71427d1e84f3dd0314c0f7b2291e5b200ac8c7c3b925",
            "0x000000000000000000000000ac5092a5c7302693a8e39643339109d21dbad723",
            "0x000000000000000000000000000000000022d473030f116ddee9f6b43ac78ba3"
          ],
          "data": "0xffffffffffffffffffffffffffffffffffffffffffffffffffffffffffffffff",
          "blockHash": "0xe85ae0f1c900f2265c38f90de7afdd7c5114cd75a441b13b04b7226bf4fb94e9",
          "blockNumber": "0xf77781",
          "transactionHash": "0xadc43a95f715de1fe9a738f5f966161be59678605c58210ddc4ab7a3feea3141",
          "transactionIndex": "0x12",
          "logIndex": "0x115",
          "removed": false
        }
      ],
      "logsBloom": "0x00000000000000000000000081000000000000000000000000000000000000000000000000000000000000000000000000000000800000000000000000280000000000000000000000004000000000000000000000000800000000000000000000000000000000000000000000000000000000200000000000000000000000000000000000000000000000000000000000000000000000000000000000000000020000000000000020000000000000000000000000020000000000000000000000000000000000000000000000000000000000000000000000000000000000000010000000000000000000000000000000000000000000000000000000000000",
      "type": "0x2",
      "transactionHash": "0xadc43a95f715de1fe9a738f5f966161be59678605c58210ddc4ab7a3feea3141",
      "transactionIndex": "0x12",
      "blockHash": "0xe85ae0f1c900f2265c38f90de7afdd7c5114cd75a441b13b04b7226bf4fb94e9",
      "blockNumber": "0xf77781",
      "gasUsed": "0x6876",
      "effectiveGasPrice": "0x18e0c",
      "from": "0xac5092a5c7302693a8e39643339109d21dbad723",
      "to": "0x76f14c98d2b3d4d7e09486ca09e5be1b4e19182a",
      "contractAddress": null,
      "l1BaseFeeScalar": "0x21f9",
      "l1BlobBaseFee": "0x1",
      "l1BlobBaseFeeScalar": "0xdd3ef",
      "l1Fee": "0xd98be05a",
      "l1GasPrice": "0xfa23bb1",
      "l1GasUsed": "0x640"
    },
    {
      "status": "0x1",
      "cumulativeGasUsed": "0x1066e2f",
      "logs": [
        {
          "address": "0x000000000022d473030f116ddee9f6b43ac78ba3",
          "topics": [
            "0xda9fa7c1b00402c17d0161b249b1ab8bbec047c5a52207b9c112deffd817036b",
            "0x000000000000000000000000ac5092a5c7302693a8e39643339109d21dbad723",
            "0x00000000000000000000000076f14c98d2b3d4d7e09486ca09e5be1b4e19182a",
            "0x000000000000000000000000c585e0f504613b5fbf874f21af14c65260fb41fa"
          ],
          "data": "0x000000000000000000000000ffffffffffffffffffffffffffffffffffffffff0000000000000000000000000000000000000000000000000000ffffffffffff",
          "blockHash": "0xe85ae0f1c900f2265c38f90de7afdd7c5114cd75a441b13b04b7226bf4fb94e9",
          "blockNumber": "0xf77781",
          "transactionHash": "0xd973dc81ee54b6746af6df39df2d94525c18d68c129483f25f7d1a372657f21e",
          "transactionIndex": "0x13",
          "logIndex": "0x116",
          "removed": false
        }
      ],
      "logsBloom": "0x00010000000000000000000000000000000000000000000000000000000000000000000000000000000000000000000000000000000000000000010000280000000000000000000000000000000000000000000000000000000000000000000000000000000000000000000000000000000000200000000000000000000000000020000000000000000200000000000000000000000000000000000000000000000000000000000020000000000000000000000010020000000000080000000000000000000000000000000000000000000001000000000040000000000000000000000000000000000000000000000400000000000000000000000000000400",
      "type": "0x2",
      "transactionHash": "0xd973dc81ee54b6746af6df39df2d94525c18d68c129483f25f7d1a372657f21e",
      "transactionIndex": "0x13",
      "blockHash": "0xe85ae0f1c900f2265c38f90de7afdd7c5114cd75a441b13b04b7226bf4fb94e9",
      "blockNumber": "0xf77781",
      "gasUsed": "0x6d0e",
      "effectiveGasPrice": "0x18e0c",
      "from": "0xac5092a5c7302693a8e39643339109d21dbad723",
      "to": "0x000000000022d473030f116ddee9f6b43ac78ba3",
      "contractAddress": null,
      "l1BaseFeeScalar": "0x21f9",
      "l1BlobBaseFee": "0x1",
      "l1BlobBaseFeeScalar": "0xdd3ef",
      "l1Fee": "0xf060204e",
      "l1GasPrice": "0xfa23bb1",
      "l1GasUsed": "0x6e7"
    },
    {
      "status": "0x1",
      "cumulativeGasUsed": "0x106d6a5",
      "logs": [
        {
          "address": "0xbf784ac432d1ca21135b3ee603e11ed990d77ea4",
          "topics": [
            "0x8c5be1e5ebec7d5bd14f71427d1e84f3dd0314c0f7b2291e5b200ac8c7c3b925",
            "0x000000000000000000000000ac5092a5c7302693a8e39643339109d21dbad723",
            "0x000000000000000000000000000000000022d473030f116ddee9f6b43ac78ba3"
          ],
          "data": "0xffffffffffffffffffffffffffffffffffffffffffffffffffffffffffffffff",
          "blockHash": "0xe85ae0f1c900f2265c38f90de7afdd7c5114cd75a441b13b04b7226bf4fb94e9",
          "blockNumber": "0xf77781",
          "transactionHash": "0x7a5a8f568ff4b18fb924c8a01f1effca2b3ffeaa0c6af848fc0b6b9734bcd603",
          "transactionIndex": "0x14",
          "logIndex": "0x117",
          "removed": false
        }
      ],
      "logsBloom": "0x00000020000000000000000000000000000000000000000000000000000000000000000000000000000000000000000000000000800000000000000000200000000000000000000000004000000000000000000000000800000000000000000000000000000000000000020200000000000000200000000000000000000000000000000000000000000000000000000000000000000000000000000000000000020000000000000020000000000000000000000000020000000000000000000000000000000000000000000000000000000000000000000000000000000000000010000000000000000000000000000000000000000000000000000000000000",
      "type": "0x2",
      "transactionHash": "0x7a5a8f568ff4b18fb924c8a01f1effca2b3ffeaa0c6af848fc0b6b9734bcd603",
      "transactionIndex": "0x14",
      "blockHash": "0xe85ae0f1c900f2265c38f90de7afdd7c5114cd75a441b13b04b7226bf4fb94e9",
      "blockNumber": "0xf77781",
      "gasUsed": "0x6876",
      "effectiveGasPrice": "0x18e0c",
      "from": "0xac5092a5c7302693a8e39643339109d21dbad723",
      "to": "0xbf784ac432d1ca21135b3ee603e11ed990d77ea4",
      "contractAddress": null,
      "l1BaseFeeScalar": "0x21f9",
      "l1BlobBaseFee": "0x1",
      "l1BlobBaseFeeScalar": "0xdd3ef",
      "l1Fee": "0xd98be05a",
      "l1GasPrice": "0xfa23bb1",
      "l1GasUsed": "0x640"
    },
    {
      "status": "0x1",
      "cumulativeGasUsed": "0x10743b3",
      "logs": [
        {
          "address": "0x000000000022d473030f116ddee9f6b43ac78ba3",
          "topics": [
            "0xda9fa7c1b00402c17d0161b249b1ab8bbec047c5a52207b9c112deffd817036b",
            "0x000000000000000000000000ac5092a5c7302693a8e39643339109d21dbad723",
            "0x000000000000000000000000bf784ac432d1ca21135b3ee603e11ed990d77ea4",
            "0x000000000000000000000000c585e0f504613b5fbf874f21af14c65260fb41fa"
          ],
          "data": "0x000000000000000000000000ffffffffffffffffffffffffffffffffffffffff0000000000000000000000000000000000000000000000000000ffffffffffff",
          "blockHash": "0xe85ae0f1c900f2265c38f90de7afdd7c5114cd75a441b13b04b7226bf4fb94e9",
          "blockNumber": "0xf77781",
          "transactionHash": "0x207f741a4f277e26a43a92d2241e061145f75cb1cb4b17db1eb1c4f4a2e3e8b6",
          "transactionIndex": "0x15",
          "logIndex": "0x118",
          "removed": false
        }
      ],
      "logsBloom": "0x00010004000000000000000000000000000000000000000000000000000000000000000000000000000000000000000000000000000000000000010000080000000000000000000000000000000040000000000000000000000000000000000000000000000000000000000000000000000000200000000000000000000000000020000000000000000000000000000000000000000000000000000000000000000000000000000020000000000000000000000010020000000000080000000000000000000000000000000000000000000000000000000040000000000000000000010000000000000000000000000400000000000000000000000000000400",
      "type": "0x2",
      "transactionHash": "0x207f741a4f277e26a43a92d2241e061145f75cb1cb4b17db1eb1c4f4a2e3e8b6",
      "transactionIndex": "0x15",
      "blockHash": "0xe85ae0f1c900f2265c38f90de7afdd7c5114cd75a441b13b04b7226bf4fb94e9",
      "blockNumber": "0xf77781",
      "gasUsed": "0x6d0e",
      "effectiveGasPrice": "0x18e0c",
      "from": "0xac5092a5c7302693a8e39643339109d21dbad723",
      "to": "0x000000000022d473030f116ddee9f6b43ac78ba3",
      "contractAddress": null,
      "l1BaseFeeScalar": "0x21f9",
      "l1BlobBaseFee": "0x1",
      "l1BlobBaseFeeScalar": "0xdd3ef",
      "l1Fee": "0xf060204e",
      "l1GasPrice": "0xfa23bb1",
      "l1GasUsed": "0x6e7"
    },
    {
      "status": "0x1",
      "cumulativeGasUsed": "0x10e3931",
      "logs": [
        {
          "address": "0xb1860d529182ac3bc1f51fa2abd56662b7d13f33",
          "topics": [
            "0xdd466e674ea557f56295e2d0218a125ea4b4f0f6f3307b95f85e6110838d6438",
            "0x8a5530311a8097344eb614d1e9692585cf0377ce7fc756ab296e367a5414e272",
            "0x00000000000000000000000076f14c98d2b3d4d7e09486ca09e5be1b4e19182a",
            "0x000000000000000000000000bf784ac432d1ca21135b3ee603e11ed990d77ea4"
          ],
          "data": "0x00000000000000000000000000000000000000000000000000000000000013880000000000000000000000000000000000000000000000000000000000000064000000000000000000000000bea696425cb0e2d7c4d7ba15e6ed3eb6968f504000000000000000000000000000000000000000010000000000000000000000000000000000000000000000000000000000000000000000000000000000000000",
          "blockHash": "0xe85ae0f1c900f2265c38f90de7afdd7c5114cd75a441b13b04b7226bf4fb94e9",
          "blockNumber": "0xf77781",
          "transactionHash": "0x1503868ac3a2f17dd8131d875fc08e1f94b698b8d3a6273cdaa7dc25a47731bb",
          "transactionIndex": "0x16",
          "logIndex": "0x119",
          "removed": false
        },
        {
          "address": "0xc585e0f504613b5fbf874f21af14c65260fb41fa",
          "topics": [
            "0xddf252ad1be2c89b69c2b068fc378daa952ba7f163c4a11628f55a4df523b3ef",
            "0x0000000000000000000000000000000000000000000000000000000000000000",
            "0x000000000000000000000000ac5092a5c7302693a8e39643339109d21dbad723",
            "0x0000000000000000000000000000000000000000000000000000000000000f7d"
          ],
          "data": "0x",
          "blockHash": "0xe85ae0f1c900f2265c38f90de7afdd7c5114cd75a441b13b04b7226bf4fb94e9",
          "blockNumber": "0xf77781",
          "transactionHash": "0x1503868ac3a2f17dd8131d875fc08e1f94b698b8d3a6273cdaa7dc25a47731bb",
          "transactionIndex": "0x16",
          "logIndex": "0x11a",
          "removed": false
        },
        {
          "address": "0xb1860d529182ac3bc1f51fa2abd56662b7d13f33",
          "topics": [
            "0xf208f4912782fd25c7f114ca3723a2d5dd6f3bcc3ac8db5af63baa85f711d5ec",
            "0x8a5530311a8097344eb614d1e9692585cf0377ce7fc756ab296e367a5414e272",
            "0x000000000000000000000000c585e0f504613b5fbf874f21af14c65260fb41fa"
          ],
          "data": "0xfffffffffffffffffffffffffffffffffffffffffffffffffffffffffffedb0800000000000000000000000000000000000000000000000000000000000124f8000000000000000000000000000000000000000000000002c69ab5c5a569cf5b0000000000000000000000000000000000000000000000000000000000000f7d",
          "blockHash": "0xe85ae0f1c900f2265c38f90de7afdd7c5114cd75a441b13b04b7226bf4fb94e9",
          "blockNumber": "0xf77781",
          "transactionHash": "0x1503868ac3a2f17dd8131d875fc08e1f94b698b8d3a6273cdaa7dc25a47731bb",
          "transactionIndex": "0x16",
          "logIndex": "0x11b",
          "removed": false
        },
        {
          "address": "0x76f14c98d2b3d4d7e09486ca09e5be1b4e19182a",
          "topics": [
            "0xddf252ad1be2c89b69c2b068fc378daa952ba7f163c4a11628f55a4df523b3ef",
            "0x000000000000000000000000ac5092a5c7302693a8e39643339109d21dbad723",
            "0x000000000000000000000000b1860d529182ac3bc1f51fa2abd56662b7d13f33"
          ],
          "data": "0x000000000000000000000000000000000000000000000002b5e3af16b1880000",
          "blockHash": "0xe85ae0f1c900f2265c38f90de7afdd7c5114cd75a441b13b04b7226bf4fb94e9",
          "blockNumber": "0xf77781",
          "transactionHash": "0x1503868ac3a2f17dd8131d875fc08e1f94b698b8d3a6273cdaa7dc25a47731bb",
          "transactionIndex": "0x16",
          "logIndex": "0x11c",
          "removed": false
        },
        {
          "address": "0xbf784ac432d1ca21135b3ee603e11ed990d77ea4",
          "topics": [
            "0xddf252ad1be2c89b69c2b068fc378daa952ba7f163c4a11628f55a4df523b3ef",
            "0x000000000000000000000000ac5092a5c7302693a8e39643339109d21dbad723",
            "0x000000000000000000000000b1860d529182ac3bc1f51fa2abd56662b7d13f33"
          ],
          "data": "0x000000000000000000000000000000000000000000000002b5e3af16b1880000",
          "blockHash": "0xe85ae0f1c900f2265c38f90de7afdd7c5114cd75a441b13b04b7226bf4fb94e9",
          "blockNumber": "0xf77781",
          "transactionHash": "0x1503868ac3a2f17dd8131d875fc08e1f94b698b8d3a6273cdaa7dc25a47731bb",
          "transactionIndex": "0x16",
          "logIndex": "0x11d",
          "removed": false
        }
      ],
      "logsBloom": "0x00000024000000000000000081000000000000400000000020000000000000000000000000000000000000000000000000000000400000000000030000280000000000000000000000000008000040000040000000000000000000000000000000000000020000000000020200000800000000200000000000000810000000010000000001000008000200000020000000000001000000000000000000200000000004000000000020000000000000000000000010020000020000000100000000000002000000000000000000800000000001000000000000000000400020000008010000000000000000000000000404010000010000000000000000000000",
      "type": "0x2",
      "transactionHash": "0x1503868ac3a2f17dd8131d875fc08e1f94b698b8d3a6273cdaa7dc25a47731bb",
      "transactionIndex": "0x16",
      "blockHash": "0xe85ae0f1c900f2265c38f90de7afdd7c5114cd75a441b13b04b7226bf4fb94e9",
      "blockNumber": "0xf77781",
      "gasUsed": "0x6f57e",
      "effectiveGasPrice": "0x18e0c",
      "from": "0xac5092a5c7302693a8e39643339109d21dbad723",
      "to": "0xc585e0f504613b5fbf874f21af14c65260fb41fa",
      "contractAddress": null,
      "l1BaseFeeScalar": "0x21f9",
      "l1BlobBaseFee": "0x1",
      "l1BlobBaseFeeScalar": "0xdd3ef",
      "l1Fee": "0x2dd88e04b",
      "l1GasPrice": "0xfa23bb1",
      "l1GasUsed": "0x1512"
    }
  ],
  "libraries": [],
  "pending": [],
  "returns": {},
  "timestamp": 1751771610,
  "chain": 480,
  "commit": "cf95ec0"
}