{
  "transactions": [
    {
      "hash": "0x977ae317b9aad69590f4da1f971ad74f7e914c7084df5378d2d8680e7f86e2f6",
      "transactionType": "CALL",
      "contractName": null,
      "contractAddress": "0x76f14c98d2b3d4d7e09486ca09e5be1b4e19182a",
      "function": "approve(address,uint256)",
      "arguments": [
        "0x000000000022D473030F116dDEE9F6B43aC78BA3",
        "115792089237316195423570985008687907853269984665640564039457584007913129639935"
      ],
      "transaction": {
        "from": "0xac5092a5c7302693a8e39643339109d21dbad723",
        "to": "0x76f14c98d2b3d4d7e09486ca09e5be1b4e19182a",
        "gas": "0x10a75",
        "value": "0x0",
        "input": "0x095ea7b3000000000000000000000000000000000022d473030f116ddee9f6b43ac78ba3ffffffffffffffffffffffffffffffffffffffffffffffffffffffffffffffff",
        "nonce": "0x14",
        "chainId": "0x1e0"
      },
      "additionalContracts": [],
      "isFixedGasLimit": false
    },
    {
      "hash": "0xbcb1b053503764b7294a45e4c5aa244c73ca3ed356208b140363a5c70b67924f",
      "transactionType": "CALL",
      "contractName": null,
      "contractAddress": "0x000000000022d473030f116ddee9f6b43ac78ba3",
      "function": "approve(address,address,uint160,uint48)",
      "arguments": [
        "0x76f14c98d2B3d4D7e09486Ca09e5BE1B4E19182a",
        "0xC585E0f504613b5fBf874F21Af14c65260fB41fA",
        "1461501637330902918203684832716283019655932542975",
        "281474976710655"
      ],
      "transaction": {
        "from": "0xac5092a5c7302693a8e39643339109d21dbad723",
        "to": "0x000000000022d473030f116ddee9f6b43ac78ba3",
        "gas": "0x1112d",
        "value": "0x0",
        "input": "0x87517c4500000000000000000000000076f14c98d2b3d4d7e09486ca09e5be1b4e19182a000000000000000000000000c585e0f504613b5fbf874f21af14c65260fb41fa000000000000000000000000ffffffffffffffffffffffffffffffffffffffff0000000000000000000000000000000000000000000000000000ffffffffffff",
        "nonce": "0x15",
        "chainId": "0x1e0"
      },
      "additionalContracts": [],
      "isFixedGasLimit": false
    },
    {
      "hash": "0xabe1e7351132ace0d357e1db93f4cbdf71c9ee5a30da72489fdf0e70324b05a2",
      "transactionType": "CALL",
      "contractName": null,
      "contractAddress": "0xbf784ac432d1ca21135b3ee603e11ed990d77ea4",
      "function": "approve(address,uint256)",
      "arguments": [
        "0x000000000022D473030F116dDEE9F6B43aC78BA3",
        "115792089237316195423570985008687907853269984665640564039457584007913129639935"
      ],
      "transaction": {
        "from": "0xac5092a5c7302693a8e39643339109d21dbad723",
        "to": "0xbf784ac432d1ca21135b3ee603e11ed990d77ea4",
        "gas": "0x10a75",
        "value": "0x0",
        "input": "0x095ea7b3000000000000000000000000000000000022d473030f116ddee9f6b43ac78ba3ffffffffffffffffffffffffffffffffffffffffffffffffffffffffffffffff",
        "nonce": "0x16",
        "chainId": "0x1e0"
      },
      "additionalContracts": [],
      "isFixedGasLimit": false
    },
    {
      "hash": "0x12849e85d03f25a831c1e918a361d807fcecf33a7f4e32f3a7c8cc0742292550",
      "transactionType": "CALL",
      "contractName": null,
      "contractAddress": "0x000000000022d473030f116ddee9f6b43ac78ba3",
      "function": "approve(address,address,uint160,uint48)",
      "arguments": [
        "0xbF784Ac432D1CA21135B3ee603E11ED990D77EA4",
        "0xC585E0f504613b5fBf874F21Af14c65260fB41fA",
        "1461501637330902918203684832716283019655932542975",
        "281474976710655"
      ],
      "transaction": {
        "from": "0xac5092a5c7302693a8e39643339109d21dbad723",
        "to": "0x000000000022d473030f116ddee9f6b43ac78ba3",
        "gas": "0x1112d",
        "value": "0x0",
        "input": "0x87517c45000000000000000000000000bf784ac432d1ca21135b3ee603e11ed990d77ea4000000000000000000000000c585e0f504613b5fbf874f21af14c65260fb41fa000000000000000000000000ffffffffffffffffffffffffffffffffffffffff0000000000000000000000000000000000000000000000000000ffffffffffff",
        "nonce": "0x17",
        "chainId": "0x1e0"
      },
      "additionalContracts": [],
      "isFixedGasLimit": false
    },
    {
      "hash": "0x77cd23ac373026032902ab0bbf74701cf1f82592c842c4fadbf18cf02181b361",
      "transactionType": "CALL",
      "contractName": null,
      "contractAddress": "0xc585e0f504613b5fbf874f21af14c65260fb41fa",
      "function": "multicall(bytes[])",
      "arguments": [
        "[0xf702040500000000000000000000000076f14c98d2b3d4d7e09486ca09e5be1b4e19182a000000000000000000000000bf784ac432d1ca21135b3ee603e11ed990d77ea400000000000000000000000000000000000000000000000000000000000013880000000000000000000000000000000000000000000000000000000000000064000000000000000000000000235877899ecd2287b073d312c02d21e7f8d09040000000000000000000000000000000000000000100000000000000000000000000000000000000000000000000000000000000000000000000000000000000e00000000000000000000000000000000000000000000000000000000000000000, 0xdd46508f0000000000000000000000000000000000000000000000000000000000000040000000000000000000000000000000000000000000000000000000006868a28b0000000000000000000000000000000000000000000000000000000000000400000000000000000000000000000000000000000000000000000000000000004000000000000000000000000000000000000000000000000000000000000000800000000000000000000000000000000000000000000000000000000000000004020d14140000000000000000000000000000000000000000000000000000000000000000000000000000000000000000000000000000000000000000000000040000000000000000000000000000000000000000000000000000000000000080000000000000000000000000000000000000000000000000000000000000024000000000000000000000000000000000000000000000000000000000000002a0000000000000000000000000000000000000000000000000000000000000030000000000000000000000000000000000000000000000000000000000000001a000000000000000000000000076f14c98d2b3d4d7e09486ca09e5be1b4e19182a000000000000000000000000bf784ac432d1ca21135b3ee603e11ed990d77ea400000000000000000000000000000000000000000000000000000000000013880000000000000000000000000000000000000000000000000000000000000064000000000000000000000000235877899ecd2287b073d312c02d21e7f8d09040fffffffffffffffffffffffffffffffffffffffffffffffffffffffffffedb0800000000000000000000000000000000000000000000000000000000000124f80000000000000000000000000000000000000000000000008e1ef127877b8fdf0000000000000000000000000000000000000000000000008ac7230489e800010000000000000000000000000000000000000000000000008ac7230489e80001000000000000000000000000ac5092a5c7302693a8e39643339109d21dbad72300000000000000000000000000000000000000000000000000000000000001800000000000000000000000000000000000000000000000000000000000000000000000000000000000000000000000000000000000000000000000000000004000000000000000000000000076f14c98d2b3d4d7e09486ca09e5be1b4e19182a000000000000000000000000bf784ac432d1ca21135b3ee603e11ed990d77ea4000000000000000000000000000000000000000000000000000000000000004000000000000000000000000076f14c98d2b3d4d7e09486ca09e5be1b4e19182a000000000000000000000000ac5092a5c7302693a8e39643339109d21dbad7230000000000000000000000000000000000000000000000000000000000000040000000000000000000000000bf784ac432d1ca21135b3ee603e11ed990d77ea4000000000000000000000000ac5092a5c7302693a8e39643339109d21dbad723]"
      ],
      "transaction": {
        "from": "0xac5092a5c7302693a8e39643339109d21dbad723",
        "to": "0xc585e0f504613b5fbf874f21af14c65260fb41fa",
        "gas": "0xa5522",
        "value": "0x0",
        "input": "0xac9650d800000000000000000000000000000000000000000000000000000000000000200000000000000000000000000000000000000000000000000000000000000002000000000000000000000000000000000000000000000000000000000000004000000000000000000000000000000000000000000000000000000000000001800000000000000000000000000000000000000000000000000000000000000104f702040500000000000000000000000076f14c98d2b3d4d7e09486ca09e5be1b4e19182a000000000000000000000000bf784ac432d1ca21135b3ee603e11ed990d77ea400000000000000000000000000000000000000000000000000000000000013880000000000000000000000000000000000000000000000000000000000000064000000000000000000000000235877899ecd2287b073d312c02d21e7f8d09040000000000000000000000000000000000000000100000000000000000000000000000000000000000000000000000000000000000000000000000000000000e00000000000000000000000000000000000000000000000000000000000000000000000000000000000000000000000000000000000000000000000000000000000000000000000000000000000000000000000000000000000000464dd46508f0000000000000000000000000000000000000000000000000000000000000040000000000000000000000000000000000000000000000000000000006868a28b0000000000000000000000000000000000000000000000000000000000000400000000000000000000000000000000000000000000000000000000000000004000000000000000000000000000000000000000000000000000000000000000800000000000000000000000000000000000000000000000000000000000000004020d14140000000000000000000000000000000000000000000000000000000000000000000000000000000000000000000000000000000000000000000000040000000000000000000000000000000000000000000000000000000000000080000000000000000000000000000000000000000000000000000000000000024000000000000000000000000000000000000000000000000000000000000002a0000000000000000000000000000000000000000000000000000000000000030000000000000000000000000000000000000000000000000000000000000001a000000000000000000000000076f14c98d2b3d4d7e09486ca09e5be1b4e19182a000000000000000000000000bf784ac432d1ca21135b3ee603e11ed990d77ea400000000000000000000000000000000000000000000000000000000000013880000000000000000000000000000000000000000000000000000000000000064000000000000000000000000235877899ecd2287b073d312c02d21e7f8d09040fffffffffffffffffffffffffffffffffffffffffffffffffffffffffffedb0800000000000000000000000000000000000000000000000000000000000124f80000000000000000000000000000000000000000000000008e1ef127877b8fdf0000000000000000000000000000000000000000000000008ac7230489e800010000000000000000000000000000000000000000000000008ac7230489e80001000000000000000000000000ac5092a5c7302693a8e39643339109d21dbad72300000000000000000000000000000000000000000000000000000000000001800000000000000000000000000000000000000000000000000000000000000000000000000000000000000000000000000000000000000000000000000000004000000000000000000000000076f14c98d2b3d4d7e09486ca09e5be1b4e19182a000000000000000000000000bf784ac432d1ca21135b3ee603e11ed990d77ea4000000000000000000000000000000000000000000000000000000000000004000000000000000000000000076f14c98d2b3d4d7e09486ca09e5be1b4e19182a000000000000000000000000ac5092a5c7302693a8e39643339109d21dbad7230000000000000000000000000000000000000000000000000000000000000040000000000000000000000000bf784ac432d1ca21135b3ee603e11ed990d77ea4000000000000000000000000ac5092a5c7302693a8e39643339109d21dbad72300000000000000000000000000000000000000000000000000000000",
        "nonce": "0x18",
        "chainId": "0x1e0"
      },
      "additionalContracts": [],
      "isFixedGasLimit": false
    }
  ],
  "receipts": [
    {
      "status": "0x1",
      "cumulativeGasUsed": "0xc23e95",
      "logs": [
        {
          "address": "0x76f14c98d2b3d4d7e09486ca09e5be1b4e19182a",
          "topics": [
            "0x8c5be1e5ebec7d5bd14f71427d1e84f3dd0314c0f7b2291e5b200ac8c7c3b925",
            "0x000000000000000000000000ac5092a5c7302693a8e39643339109d21dbad723",
            "0x000000000000000000000000000000000022d473030f116ddee9f6b43ac78ba3"
          ],
          "data": "0xffffffffffffffffffffffffffffffffffffffffffffffffffffffffffffffff",
          "blockHash": "0x95845864b8d4607b1acdecf37ae80be23b5e4e4456f1ac5e1eb5f004c1374365",
          "blockNumber": "0xf6ccd6",
          "transactionHash": "0x977ae317b9aad69590f4da1f971ad74f7e914c7084df5378d2d8680e7f86e2f6",
          "transactionIndex": "0x26",
          "logIndex": "0xf5",
          "removed": false
        }
      ],
      "logsBloom": "0x00000000000000000000000081000000000000000000000000000000000000000000000000000000000000000000000000000000800000000000000000280000000000000000000000004000000000000000000000000800000000000000000000000000000000000000000000000000000000200000000000000000000000000000000000000000000000000000000000000000000000000000000000000000020000000000000020000000000000000000000000020000000000000000000000000000000000000000000000000000000000000000000000000000000000000010000000000000000000000000000000000000000000000000000000000000",
      "type": "0x2",
      "transactionHash": "0x977ae317b9aad69590f4da1f971ad74f7e914c7084df5378d2d8680e7f86e2f6",
      "transactionIndex": "0x26",
      "blockHash": "0x95845864b8d4607b1acdecf37ae80be23b5e4e4456f1ac5e1eb5f004c1374365",
      "blockNumber": "0xf6ccd6",
      "gasUsed": "0xb632",
      "effectiveGasPrice": "0x193a5",
      "from": "0xac5092a5c7302693a8e39643339109d21dbad723",
      "to": "0x76f14c98d2b3d4d7e09486ca09e5be1b4e19182a",
      "contractAddress": null,
      "l1BaseFeeScalar": "0x21f9",
      "l1BlobBaseFee": "0x1",
      "l1BlobBaseFeeScalar": "0xdd3ef",
      "l1Fee": "0xc7c00dd3",
      "l1GasPrice": "0xe5ad58d",
      "l1GasUsed": "0x640"
    },
    {
      "status": "0x1",
      "cumulativeGasUsed": "0xc2f95f",
      "logs": [
        {
          "address": "0x000000000022d473030f116ddee9f6b43ac78ba3",
          "topics": [
            "0xda9fa7c1b00402c17d0161b249b1ab8bbec047c5a52207b9c112deffd817036b",
            "0x000000000000000000000000ac5092a5c7302693a8e39643339109d21dbad723",
            "0x00000000000000000000000076f14c98d2b3d4d7e09486ca09e5be1b4e19182a",
            "0x000000000000000000000000c585e0f504613b5fbf874f21af14c65260fb41fa"
          ],
          "data": "0x000000000000000000000000ffffffffffffffffffffffffffffffffffffffff0000000000000000000000000000000000000000000000000000ffffffffffff",
          "blockHash": "0x95845864b8d4607b1acdecf37ae80be23b5e4e4456f1ac5e1eb5f004c1374365",
          "blockNumber": "0xf6ccd6",
          "transactionHash": "0xbcb1b053503764b7294a45e4c5aa244c73ca3ed356208b140363a5c70b67924f",
          "transactionIndex": "0x27",
          "logIndex": "0xf6",
          "removed": false
        }
      ],
      "logsBloom": "0x00010000000000000000000000000000000000000000000000000000000000000000000000000000000000000000000000000000000000000000010000280000000000000000000000000000000000000000000000000000000000000000000000000000000000000000000000000000000000200000000000000000000000000020000000000000000200000000000000000000000000000000000000000000000000000000000020000000000000000000000010020000000000080000000000000000000000000000000000000000000001000000000040000000000000000000000000000000000000000000000400000000000000000000000000000400",
      "type": "0x2",
      "transactionHash": "0xbcb1b053503764b7294a45e4c5aa244c73ca3ed356208b140363a5c70b67924f",
      "transactionIndex": "0x27",
      "blockHash": "0x95845864b8d4607b1acdecf37ae80be23b5e4e4456f1ac5e1eb5f004c1374365",
      "blockNumber": "0xf6ccd6",
      "gasUsed": "0xbaca",
      "effectiveGasPrice": "0x193a5",
      "from": "0xac5092a5c7302693a8e39643339109d21dbad723",
      "to": "0x000000000022d473030f116ddee9f6b43ac78ba3",
      "contractAddress": null,
      "l1BaseFeeScalar": "0x21f9",
      "l1BlobBaseFee": "0x1",
      "l1BlobBaseFeeScalar": "0xdd3ef",
      "l1Fee": "0xde61f935",
      "l1GasPrice": "0xe5ad58d",
      "l1GasUsed": "0x6f5"
    },
    {
      "status": "0x1",
      "cumulativeGasUsed": "0xc3af91",
      "logs": [
        {
          "address": "0xbf784ac432d1ca21135b3ee603e11ed990d77ea4",
          "topics": [
            "0x8c5be1e5ebec7d5bd14f71427d1e84f3dd0314c0f7b2291e5b200ac8c7c3b925",
            "0x000000000000000000000000ac5092a5c7302693a8e39643339109d21dbad723",
            "0x000000000000000000000000000000000022d473030f116ddee9f6b43ac78ba3"
          ],
          "data": "0xffffffffffffffffffffffffffffffffffffffffffffffffffffffffffffffff",
          "blockHash": "0x95845864b8d4607b1acdecf37ae80be23b5e4e4456f1ac5e1eb5f004c1374365",
          "blockNumber": "0xf6ccd6",
          "transactionHash": "0xabe1e7351132ace0d357e1db93f4cbdf71c9ee5a30da72489fdf0e70324b05a2",
          "transactionIndex": "0x28",
          "logIndex": "0xf7",
          "removed": false
        }
      ],
      "logsBloom": "0x00000020000000000000000000000000000000000000000000000000000000000000000000000000000000000000000000000000800000000000000000200000000000000000000000004000000000000000000000000800000000000000000000000000000000000000020200000000000000200000000000000000000000000000000000000000000000000000000000000000000000000000000000000000020000000000000020000000000000000000000000020000000000000000000000000000000000000000000000000000000000000000000000000000000000000010000000000000000000000000000000000000000000000000000000000000",
      "type": "0x2",
      "transactionHash": "0xabe1e7351132ace0d357e1db93f4cbdf71c9ee5a30da72489fdf0e70324b05a2",
      "transactionIndex": "0x28",
      "blockHash": "0x95845864b8d4607b1acdecf37ae80be23b5e4e4456f1ac5e1eb5f004c1374365",
      "blockNumber": "0xf6ccd6",
      "gasUsed": "0xb632",
      "effectiveGasPrice": "0x193a5",
      "from": "0xac5092a5c7302693a8e39643339109d21dbad723",
      "to": "0xbf784ac432d1ca21135b3ee603e11ed990d77ea4",
      "contractAddress": null,
      "l1BaseFeeScalar": "0x21f9",
      "l1BlobBaseFee": "0x1",
      "l1BlobBaseFeeScalar": "0xdd3ef",
      "l1Fee": "0xc7c00dd3",
      "l1GasPrice": "0xe5ad58d",
      "l1GasUsed": "0x640"
    },
    {
      "status": "0x1",
      "cumulativeGasUsed": "0xc46a5b",
      "logs": [
        {
          "address": "0x000000000022d473030f116ddee9f6b43ac78ba3",
          "topics": [
            "0xda9fa7c1b00402c17d0161b249b1ab8bbec047c5a52207b9c112deffd817036b",
            "0x000000000000000000000000ac5092a5c7302693a8e39643339109d21dbad723",
            "0x000000000000000000000000bf784ac432d1ca21135b3ee603e11ed990d77ea4",
            "0x000000000000000000000000c585e0f504613b5fbf874f21af14c65260fb41fa"
          ],
          "data": "0x000000000000000000000000ffffffffffffffffffffffffffffffffffffffff0000000000000000000000000000000000000000000000000000ffffffffffff",
          "blockHash": "0x95845864b8d4607b1acdecf37ae80be23b5e4e4456f1ac5e1eb5f004c1374365",
          "blockNumber": "0xf6ccd6",
          "transactionHash": "0x12849e85d03f25a831c1e918a361d807fcecf33a7f4e32f3a7c8cc0742292550",
          "transactionIndex": "0x29",
          "logIndex": "0xf8",
          "removed": false
        }
      ],
      "logsBloom": "0x00010004000000000000000000000000000000000000000000000000000000000000000000000000000000000000000000000000000000000000010000080000000000000000000000000000000040000000000000000000000000000000000000000000000000000000000000000000000000200000000000000000000000000020000000000000000000000000000000000000000000000000000000000000000000000000000020000000000000000000000010020000000000080000000000000000000000000000000000000000000000000000000040000000000000000000010000000000000000000000000400000000000000000000000000000400",
      "type": "0x2",
      "transactionHash": "0x12849e85d03f25a831c1e918a361d807fcecf33a7f4e32f3a7c8cc0742292550",
      "transactionIndex": "0x29",
      "blockHash": "0x95845864b8d4607b1acdecf37ae80be23b5e4e4456f1ac5e1eb5f004c1374365",
      "blockNumber": "0xf6ccd6",
      "gasUsed": "0xbaca",
      "effectiveGasPrice": "0x193a5",
      "from": "0xac5092a5c7302693a8e39643339109d21dbad723",
      "to": "0x000000000022d473030f116ddee9f6b43ac78ba3",
      "contractAddress": null,
      "l1BaseFeeScalar": "0x21f9",
      "l1BlobBaseFee": "0x1",
      "l1BlobBaseFeeScalar": "0xdd3ef",
      "l1Fee": "0xde61f935",
      "l1GasPrice": "0xe5ad58d",
      "l1GasUsed": "0x6f5"
    },
    {
      "status": "0x1",
      "cumulativeGasUsed": "0xcbe563",
      "logs": [
        {
          "address": "0xb1860d529182ac3bc1f51fa2abd56662b7d13f33",
          "topics": [
            "0xdd466e674ea557f56295e2d0218a125ea4b4f0f6f3307b95f85e6110838d6438",
            "0x7629b6dd8348b724674a6d139d316f5ffe86cc18c98b8aa3e1c52d53472e220b",
            "0x00000000000000000000000076f14c98d2b3d4d7e09486ca09e5be1b4e19182a",
            "0x000000000000000000000000bf784ac432d1ca21135b3ee603e11ed990d77ea4"
          ],
          "data": "0x00000000000000000000000000000000000000000000000000000000000013880000000000000000000000000000000000000000000000000000000000000064000000000000000000000000235877899ecd2287b073d312c02d21e7f8d0904000000000000000000000000000000000000000010000000000000000000000000000000000000000000000000000000000000000000000000000000000000000",
          "blockHash": "0x95845864b8d4607b1acdecf37ae80be23b5e4e4456f1ac5e1eb5f004c1374365",
          "blockNumber": "0xf6ccd6",
          "transactionHash": "0x77cd23ac373026032902ab0bbf74701cf1f82592c842c4fadbf18cf02181b361",
          "transactionIndex": "0x2a",
          "logIndex": "0xf9",
          "removed": false
        },
        {
          "address": "0xc585e0f504613b5fbf874f21af14c65260fb41fa",
          "topics": [
            "0xddf252ad1be2c89b69c2b068fc378daa952ba7f163c4a11628f55a4df523b3ef",
            "0x0000000000000000000000000000000000000000000000000000000000000000",
            "0x000000000000000000000000ac5092a5c7302693a8e39643339109d21dbad723",
            "0x0000000000000000000000000000000000000000000000000000000000000f57"
          ],
          "data": "0x",
          "blockHash": "0x95845864b8d4607b1acdecf37ae80be23b5e4e4456f1ac5e1eb5f004c1374365",
          "blockNumber": "0xf6ccd6",
          "transactionHash": "0x77cd23ac373026032902ab0bbf74701cf1f82592c842c4fadbf18cf02181b361",
          "transactionIndex": "0x2a",
          "logIndex": "0xfa",
          "removed": false
        },
        {
          "address": "0xb1860d529182ac3bc1f51fa2abd56662b7d13f33",
          "topics": [
            "0xf208f4912782fd25c7f114ca3723a2d5dd6f3bcc3ac8db5af63baa85f711d5ec",
            "0x7629b6dd8348b724674a6d139d316f5ffe86cc18c98b8aa3e1c52d53472e220b",
            "0x000000000000000000000000c585e0f504613b5fbf874f21af14c65260fb41fa"
          ],
          "data": "0xfffffffffffffffffffffffffffffffffffffffffffffffffffffffffffedb0800000000000000000000000000000000000000000000000000000000000124f80000000000000000000000000000000000000000000000008e1ef127877b8fdf0000000000000000000000000000000000000000000000000000000000000f57",
          "blockHash": "0x95845864b8d4607b1acdecf37ae80be23b5e4e4456f1ac5e1eb5f004c1374365",
          "blockNumber": "0xf6ccd6",
          "transactionHash": "0x77cd23ac373026032902ab0bbf74701cf1f82592c842c4fadbf18cf02181b361",
          "transactionIndex": "0x2a",
          "logIndex": "0xfb",
          "removed": false
        },
        {
          "address": "0x76f14c98d2b3d4d7e09486ca09e5be1b4e19182a",
          "topics": [
            "0xddf252ad1be2c89b69c2b068fc378daa952ba7f163c4a11628f55a4df523b3ef",
            "0x000000000000000000000000ac5092a5c7302693a8e39643339109d21dbad723",
            "0x000000000000000000000000b1860d529182ac3bc1f51fa2abd56662b7d13f33"
          ],
          "data": "0x0000000000000000000000000000000000000000000000008ac7230489e80000",
          "blockHash": "0x95845864b8d4607b1acdecf37ae80be23b5e4e4456f1ac5e1eb5f004c1374365",
          "blockNumber": "0xf6ccd6",
          "transactionHash": "0x77cd23ac373026032902ab0bbf74701cf1f82592c842c4fadbf18cf02181b361",
          "transactionIndex": "0x2a",
          "logIndex": "0xfc",
          "removed": false
        },
        {
          "address": "0xbf784ac432d1ca21135b3ee603e11ed990d77ea4",
          "topics": [
            "0xddf252ad1be2c89b69c2b068fc378daa952ba7f163c4a11628f55a4df523b3ef",
            "0x000000000000000000000000ac5092a5c7302693a8e39643339109d21dbad723",
            "0x000000000000000000000000b1860d529182ac3bc1f51fa2abd56662b7d13f33"
          ],
          "data": "0x0000000000000000000000000000000000000000000000008ac7230489e80000",
          "blockHash": "0x95845864b8d4607b1acdecf37ae80be23b5e4e4456f1ac5e1eb5f004c1374365",
          "blockNumber": "0xf6ccd6",
          "transactionHash": "0x77cd23ac373026032902ab0bbf74701cf1f82592c842c4fadbf18cf02181b361",
          "transactionIndex": "0x2a",
          "logIndex": "0xfd",
          "removed": false
        }
      ],
      "logsBloom": "0x00000024000000000000000081000000000000400000010020000000000000000000000000000000000000000000000000000000000000000000010002280000000000000000000000000008000040000040000000000000000000000000000000000000020000000000020200000800000000200000000000000810000000000000000001000108000200000000000000000001000000000000000000200000000004000000000020000000000000000000000010020000020000000000000000000002000000000000000000000000000001000000000000000000400020400008010000000000000000040000000404010000010000000000000000004000",
      "type": "0x2",
      "transactionHash": "0x77cd23ac373026032902ab0bbf74701cf1f82592c842c4fadbf18cf02181b361",
      "transactionIndex": "0x2a",
      "blockHash": "0x95845864b8d4607b1acdecf37ae80be23b5e4e4456f1ac5e1eb5f004c1374365",
      "blockNumber": "0xf6ccd6",
      "gasUsed": "0x77b08",
      "effectiveGasPrice": "0x193a5",
      "from": "0xac5092a5c7302693a8e39643339109d21dbad723",
      "to": "0xc585e0f504613b5fbf874f21af14c65260fb41fa",
      "contractAddress": null,
      "l1BaseFeeScalar": "0x21f9",
      "l1BlobBaseFee": "0x1",
      "l1BlobBaseFeeScalar": "0xdd3ef",
      "l1Fee": "0x29fdb8e1d",
      "l1GasPrice": "0xe5ad58d",
      "l1GasUsed": "0x1505"
    }
  ],
  "libraries": [],
  "pending": [],
  "returns": {},
  "timestamp": 1751684229,
  "chain": 480,
  "commit": "d3377bb"
}